:020000040800F2
:100000000028002001130008911200089712000830
:100010009D120008A3120008A912000800000000A9
:10002000000000000000000000000000AF12000807
:10003000BB12000800000000C7120008D31200081D
:100040004913000849130008491300084913000820
:100050004913000849130008491300084913000810
:100060004913000849130008491300084913000800
:1000700049130008491300084913000849130008F0
:1000800049130008491300084913000849130008E0
:1000900049130008491300084913000849130008D0
:1000A00049130008491300084913000849130008C0
:1000B000E11200084913000800000000491300087D
:1000C0004913000800000000000000004913000868
:1000D0000000000049130008491300080000000058
:1000E00049130008491300084913000800000000E4
:1000F0000000000000000000000000000000000000
:0C01000000000000000000005FF808F1A3
:10010C0010B5054C237833B9044B13B10448AFF345
:10011C0000800123237010BD5C0000200000000053
:10012C009029000808B5034B1BB103490348AFF3F2
:10013C00008008BD0000000060000020902900082D
:10014C0080B483B000AF7860094A7B6852F82330E2
:10015C00012B06D1064A7B68002142F823100123AB
:10016C0000E0002318460C37BD4680BC704700BF2A
:10017C007800002080B483B000AF7860044A7B68BC
:10018C00012142F8231000BF0C37BD4680BC7047DC
:10019C007800002080B582B000AF00237B6069E05E
:1001AC00384A7B6852F8232037497B6841F8232072
:1001BC00364A7B6852F8232032497B6841F8232069
:1001CC00334A7B6832F813301946324801F0A2FBEF
:1001DC00034619462D4A7B6842F82310294A7B684E
:1001EC0052F8232029497B6851F823309A423ED19A
:1001FC00244A7B6852F8232023497B6851F823302A
:10020C009A4234D1204A7B6852F8232022497B68D9
:10021C0051F823309A4216D01B4A7B6852F823209F
:10022C001D497B6841F823201B4A7B6852F8233018
:10023C00002B1CD1194A7B68C82142F8231078681E
:10024C00FFF798FF13E0154A7B6852F823305A1ECB
:10025C0012497B6841F82320104A7B6852F82330FE
:10026C00002B04D10C4A7B68012142F823107B68D7
:10027C0001337B607B68022B92DD00BF00BF083727
:10028C00BD4680BD14000020200000200800002086
:10029C0000000020000C01402C0000203800002041
:1002AC0080B500AF01224FF480710B4801F049FB7F
:1002BC0001224FF40071084801F043FB01224FF476
:1002CC008061054801F03DFB01224FF400610248BA
:1002DC0001F037FB00BF80BD0008014080B582B043
:1002EC0000AF78607B68002B23D100220121C2482B
:1002FC0001F027FB00220221BF4801F022FB002263
:10030C000421BD4801F01DFB00220821BA4801F070
:10031C0018FB00221021B84801F013FB0022202109
:10032C00B54801F00EFB01224021B34801F009FB56
:10033C005DE17B68012B23D101220121AE4801F044
:10034C0000FB00220221AC4801F0FBFA0022042140
:10035C00A94801F0F6FA01220821A74801F0F1FAA8
:10036C0001221021A44801F0ECFA01222021A2481C
:10037C0001F0E7FA012240219F4801F0E2FA36E150
:10038C007B68022B23D1002201219B4801F0D9FA72
:10039C0000220221984801F0D4FA01220421964847
:1003AC0001F0CFFA00220821934801F0CAFA00228A
:1003BC001021914801F0C5FA012220218E4801F04C
:1003CC00C0FA002240218C4801F0BBFA0FE17B6897
:1003DC00032B23D100220121874801F0B2FA00221D
:1003EC000221854801F0ADFA00220421824801F077
:1003FC00A8FA00220821804801F0A3FA012210215A
:10040C007D4801F09EFA012220217B4801F099FAE7
:10041C0000224021784801F094FAE8E07B68042B34
:10042C0023D101220121744801F08BFA0022022110
:10043C00714801F086FA002204216F4801F081FA1C
:10044C00012208216C4801F07CFA012210216A4833
:10045C0001F077FA00222021674801F072FA00229D
:10046C004021654801F06DFAC1E07B68052B23D172
:10047C0000220121604801F064FA012202215E4849
:10048C0001F05FFA002204215B4801F05AFA0022C5
:10049C000821594801F055FA01221021564801F063
:1004AC0050FA00222021544801F04BFA002240213E
:1004BC00514801F046FA9AE07B68062B23D10022C2
:1004CC0001214D4801F03DFA012202214A4801F078
:1004DC0038FA00220421484801F033FA002208219E
:1004EC00454801F02EFA00221021434801F029FA68
:1004FC0000222021404801F024FA002240213E48ED
:10050C0001F01FFA73E07B68072B23D10022012135
:10051C00394801F016FA00220221374801F011FA8D
:10052C0000220421344801F00CFA0122082132483F
:10053C0001F007FA012210212F4801F002FA0122E2
:10054C0020212D4801F0FDF9012240212A4801F01B
:10055C00F8F94CE07B68082B23D1002201212648B6
:10056C0001F0EFF900220221234801F0EAF9002200
:10057C000421214801F0E5F9002208211E4801F070
:10058C00E0F9002210211C4801F0DBF900222021A7
:10059C00194801F0D6F900224021174801F0D1F991
:1005AC0025E07B68092B22D100220121124801F0A1
:1005BC00C8F900220221104801F0C3F900220421DD
:1005CC000D4801F0BEF9002208210B4801F0B9F9E1
:1005DC0001221021084801F0B4F90022202106481C
:1005EC0001F0AFF900224021034801F0AAF900BF45
:1005FC000837BD4680BD00BF000C014080B582B0FD
:10060C0000AF7860FFF74CFE1B4A7B6852F8233032
:10061C001846FFF763FE7B68032B27D801A252F81C
:10062C0023F000BF410600084F0600085D060008D5
:10063C006B06000800224FF48071104801F081F91C
:10064C0015E000224FF400710C4801F07AF90EE02D
:10065C0000224FF48061094801F073F907E0002291
:10066C004FF40061054801F06CF900E000BF00BFD9
:10067C000837BD4680BD00BF88000020000801403F
:10068C0080B500AF914B1B680E2B53D00E2B00F393
:10069C000A810C2B03D00D2B00F0988003E1012272
:1006AC0008218B4801F04DF901221021884801F0F6
:1006BC0048F9884B1B68012B06D1192000F0E6FC89
:1006CC000421834801F055F90120FFF739FD034659
:1006DC00012B10D1804B1B6801337F4A13607F4B79
:1006EC001B6801337D4A13607B4B1B68632B02DD57
:1006FC00794B02221A600020FFF722FD0346012BE2
:10070C000CD1012000F0C2FC704B0E221A60744B0D
:10071C001B68724A1360734B03221A600220FFF7A6
:10072C000FFD0346012B40F0C0806B4B1B686E4ADB
:10073C001360BAE001220821654801F002F9012298
:10074C000421634801F0FDF8624B1B68012B06D1B4
:10075C00192000F09BFC10215D4801F00AF90120E2
:10076C00FFF7EEFC0346012B12D1604B1B680133E3
:10077C005E4A1360594B1B680133584A13605B4B3C
:10078C001A68594B1B689A4202DB584B01221A60BB
:10079C000020FFF7D5FC0346012B0CD1012000F003
:1007AC0075FC4A4B0D221A60514B1B684B4A136067
:1007BC004C4B04221A600220FFF7C2FC0346012BAB
:1007CC0075D14A4B1B68464A136070E00122042124
:1007DC003F4801F0B6F8012210213D4801F0B1F874
:1007EC003C4B1B68012B06D1192000F04FFC082153
:1007FC00374801F0BEF80120FFF7A2FC0346012B9D
:10080C0012D13C4B1B6801333A4A1360334B1B68C3
:10081C000133324A1360374B1A68334B1B689A42C8
:10082C0002DB344B01221A600020FFF789FC0346DF
:10083C00012B26D1254B01221A602B4B1A68284B11
:10084C001B68D31A2A4A1360274B1B68234A136070
:10085C00274B1B68234A136000F024FA244B1B68B7
:10086C00642202FB03F3184600F0C0FB642000F086
:10087C00D1FB012000F0F6FB1F4B00221A60FFF7A2
:10088C000FFD0220FFF75CFC0346012B11D1194B25
:10089C001B68174A1360144B1A68154B1B68D31A44
:1008AC000F4A136005E000BF04E000BF02E000BF88
:1008BC0000E000BF0220FFF743FC0346012B03D1ED
:1008CC00094B1B68054A136000BF80BD84000020E3
:1008DC0000080140D4000020A40000209C0000204F
:1008EC0048000020A000002044000020AC000020A4
:1008FC004C000020A80000209800002080B500AF1C
:10090C008E4B1B68042B00F27A8101A252F823F063
:10091C00310900088B0900081B0A0008BB0A0008F3
:10092C006D0B000801220421854801F00AF8012210
:10093C000821834801F005F801221021804801F0BC
:10094C0000F8012220217E4800F0FBFF012240210B
:10095C007B4800F0F6FF01228021794800F0F1FF7E
:10096C00764B01221A60774B1B68642202FB03F35F
:10097C00184600F03BFB642000F04CFB48E10022E1
:10098C0004216F4800F0DDFF012208216C4800F0C3
:10099C00D8FF012210216A4800F0D3FF0122202148
:1009AC00674800F0CEFF00224021654800F0C9FFE7
:1009BC0001228021624800F0C4FF634B1B68012BAD
:1009CC0014D1642000F026FB604B1B68013B5F4A8E
:1009DC0013605F4B1B68013B5D4A13605C4B1B68EB
:1009EC00002B03DC5B4B1B68594A13605A4B1B688A
:1009FC00012B40F00681574B1B68642202FB03F36A
:100A0C00184600F0F3FA4D4B02221A60F9E000226E
:100A1C0004214B4800F095FF01220821484800F0C2
:100A2C0090FF01221021464800F08BFF012220216B
:100A3C00434800F086FF01224021414800F081FF2D
:100A4C00002280213E4800F07CFF3F4B1B68012BAD
:100A5C001CD1642000F0DEFA3C4B1B68013B3B4A86
:100A6C0013603A4B1B68002B03DC364B1B68374A70
:100A7C001360374B1B68013B354A1360344B1B68C2
:100A8C00002B03DC354B1B68314A1360324B1B685F
:100A9C00012B40F0B8802B4B1B68642202FB03F344
:100AAC00184600F0A3FA254B03221A60ABE0012292
:100ABC000421234800F045FF00220821204800F0C3
:100ACC0040FF012210211E4800F03BFF0022202194
:100ADC001B4800F036FF01224021194800F031FF7D
:100AEC0001228021164800F02CFF174B1B68012BAC
:100AFC0014D1642000F08EFA144B1B68013B134A8E
:100B0C001360124B1B68002B03DC124B1B680F4A43
:100B1C0013600F4B1B68013B0D4A13600E4B1B6897
:100B2C00012B72D10B4B1B68642202FB03F318469A
:100B3C0000F05CFA014B04221A6066E0840000208D
:100B4C00000801404C000020BC0000209C0000204C
:100B5C00A000002048000020B40000204400002029
:100B6C0001220421434800F0ECFE012208214148F7
:100B7C0000F0E7FE002210213E4800F0E2FE0022C9
:100B8C0020213C4800F0DDFE01224021394800F0D4
:100B9C00D8FE01228021374800F0D3FE364B1B686B
:100BAC00012B1CD1642000F035FA344B1B68013B3F
:100BBC00324A1360314B1B68002B03DC304B1B6833
:100BCC002E4A13602F4B1B68013B2E4A13602D4B92
:100BDC001B68002B03DC2C4B1B682A4A13602B4B25
:100BEC001B68012B13D1284B1B68642202FB03F3F7
:100BFC00184600F0FBF9264B01221A6007E000BFF3
:100C0C0006E000BF04E000BF02E000BF00E000BF50
:100C1C000020FFF795FA0346012B28D11C4B1B68CB
:100C2C00012B0BD01A4B1B68022B07D0184B1B68DF
:100C3C00032B03D0164B1B68042B18D1144B0C221E
:100C4C001A600F4B1B68134A1360134B1B68134A33
:100C5C0013600D4B1B68124A1360012000F016FA4A
:100C6C00074B1B68054A1360064B02221A6000BF33
:100C7C0080BD00BF00080140BC0000209C0000208B
:100C8C0044000020A00000204C000020B4000020F4
:100C9C0084000020A400002048000020AC000020AC
:100CAC00A800002080B400AF1A4B1B681A4A82FBC4
:100CBC0003129210DB17D31A184A1360154B1968DC
:100CCC00154B83FB01239A10CB17D21A13469B00AA
:100CDC0013445B00CA1A114B5A60114B1B680E4A25
:100CEC0082FB03129210DB17D31A0C4A93600C4B45
:100CFC001968094B83FB01239A10CB17D21A1346A0
:100D0C009B0013445B00CA1A044BDA6000BFBD465B
:100D1C0080BC70479C0000206766666688000020D7
:100D2C00A000002080B500AF00F00AFB00F05EF8D8
:100D3C0000F0E4F800F096F8204801F05FFA01208A
:100D4C0000F07CF9012000F08DF91D4B1B681D4A49
:100D5C0013601D4B1B681D4A1360194B1B681C4A02
:100D6C001360194B1B681B4A13601B4B1B681B4AF7
:100D7C0013601B4B1B68012B04D10A2000F05EF999
:100D8C00FFF790FF174B1B68012B11D1192000F0B6
:100D9C0069F9154B1B685A1C13490A601846FFF772
:100DAC002DFC114B1B68032B02DD0F4B00221A602C
:100DBC00FFF7A4FDFFF764FCDBE700BFE8000020B1
:100DCC00440000209C0000204C000020A0000020CB
:100DDC00A4000020A800002048000020AC00002047
:100DEC00C4000020CC0000209800002080B590B0FA
:100DFC0000AF07F1180328220021184601F0BAFDB4
:100E0C003B1D00221A605A609A60DA601A61022354
:100E1C00BB610123BB621023FB6200237B6307F1E0
:100E2C001803184600F0BEFD0346002B01D000F05D
:100E3C00D7F80F237B600023BB600023FB600023EB
:100E4C003B6100237B613B1D0021184601F02AF811
:100E5C000346002B01D000F0C3F800BF4037BD465D
:100E6C0080BD000080B586B000AF07F108030022FA
:100E7C001A605A609A60DA603B4600221A605A6027
:100E8C001D4B4FF080421A601B4B41F63F725A606B
:100E9C00194B00229A60184B0922DA60164B00227B
:100EAC001A61154B00229A61134801F057F9034659
:100EBC00002B01D000F094F84FF48053BB6007F185
:100ECC00080319460C4801F0EDFA0346002B01D03B
:100EDC0000F086F800233B6000237B603B461946FC
:100EEC00054801F0B9FC0346002B01D000F078F85E
:100EFC0000BF1837BD4680BDE800002080B586B025
:100F0C0000AF07F1080300221A605A609A60DA6099
:100F1C002A4B9B69294A43F004039361274B9B6935
:100F2C0003F004037B607B68244B9B69234A43F0EA
:100F3C0008039361214B9B6903F008033B603B68FA
:100F4C00012240F6DC711E4800F0FBFC002220213F
:100F5C001B4800F0F6FC00227F211A4800F0F1FC3F
:100F6C0040F6FC73BB600123FB6000233B61022352
:100F7C007B6107F108031946114800F051FB7F23F0
:100F8C00BB600123FB6000233B6102237B6107F103
:100F9C00080319460B4800F043FB4FF4E043BB60D9
:100FAC000023FB6001233B6107F108031946054848
:100FBC0000F036FB00BF1837BD4680BD0010024064
:100FCC0000080140000C014080B582B000AF786091
:100FDC0000F070F8FFF7DEF800BF0837BD4680BDA3
:100FEC0080B400AF72B600BFFEE7000080B483B0DF
:100FFC0000AF7860054A7B681360054B00221A60CD
:10100C0000BF0C37BD4680BC704700BFB00000204D
:10101C00B400002080B483B000AF7860054A7B68D0
:10102C001360054B00221A6000BF0C37BD4680BC14
:10103C00704700BFB8000020BC00002080B483B013
:10104C0000AF7860054A7B681360054B00221A607C
:10105C0000BF0C37BD4680BC704700BFC0000020ED
:10106C00C400002080B483B000AF7860054A7B6870
:10107C001360054B00221A6000BF0C37BD4680BCC4
:10108C00704700BFC8000020CC00002080B483B0A3
:10109C0000AF7860054A7B681360054B00221A602C
:1010AC0000BF0C37BD4680BC704700BFD00000208D
:1010BC00D400002080B400AF394B1B68002B0BDD33
:1010CC00374B1B68013B364A1360354B1B68002BB2
:1010DC0002DC344B01221A60334B1B68002B0BDDF6
:1010EC00314B1B68013B304A13602F4B1B68002BA4
:1010FC0002DC2E4B01221A602D4B1B68002B0BDDE2
:10110C002B4B1B68013B2A4A1360294B1B68002B95
:10111C0002DC284B01221A60274B1B68002B0BDDCD
:10112C00254B1B68013B244A1360234B1B68002B87
:10113C0002DC224B01221A60214B1B68002B0BDDB9
:10114C001F4B1B68013B1E4A13601D4B1B68002B79
:10115C0002DC1C4B01221A601B4B1B68002B0BDDA5
:10116C00194B1B68013B184A1360174B1B68002B6B
:10117C0002DC164B01221A60154B1B68002B0BDD91
:10118C00134B1B68013B124A1360114B1B68002B5D
:10119C0002DC104B01221A6000BFBD4680BC7047B8
:1011AC00B0000020B4000020B8000020BC000020DB
:1011BC00C0000020C4000020C8000020CC0000208B
:1011CC00D0000020D4000020D8000020DC0000203B
:1011DC00E0000020E400002080B485B000AF154B87
:1011EC009B69144A43F001039361124B9B6903F012
:1011FC000103BB60BB680F4BDB690E4A43F08053A5
:10120C00D3610C4BDB6903F080537B607B680A4B2A
:10121C005B68FB60FB6823F0E063FB60FB6843F0FA
:10122C008063FB60044AFB68536000BF1437BD4603
:10123C0080BC7047001002400000014080B584B0B3
:10124C0000AF78607B681B68B3F1804F13D10C4BF7
:10125C00DB690B4A43F00103D361094BDB6903F0F3
:10126C000103FB60FB68002200211C2000F0A1F9A7
:10127C001C2000F0BAF900BF1037BD4680BD00BF7E
:10128C000010024080B400AFFEE780B400AFFEE770
:10129C0080B400AFFEE780B400AFFEE780B400AFCF
:1012AC00FEE780B400AF00BFBD4680BC704780B481
:1012BC0000AF00BFBD4680BC704780B400AF00BF1C
:1012CC00BD4680BC704780B500AF00F07FF800BF12
:1012DC0080BD000080B500AF024800F0DBFF00BF0E
:1012EC0080BD00BFE800002080B400AF00BFBD4649
:1012FC0080BC7047FFF7F8FF0B480C490C4A0023E1
:10130C0002E0D458C4500433C4188C42F9D3094AAF
:10131C00094C002301E013600432A242FBD301F01C
:10132C0005FBFFF7FFFC7047000000205C0000206D
:10133C00D42900085C00002034010020FEE70000E6
:10134C0080B500AF084B1B68074A43F010031360CD
:10135C00032000F023F90F2000F008F8FFF73CFF02
:10136C000023184680BD00BF0020024080B582B02B
:10137C0000AF7860124B1A68124B1B7819464FF469
:10138C007A73B3FBF1F3B2FBF3F3184600F03BF9BD
:10139C000346002B01D001230EE07B680F2B0AD8EB
:1013AC00002279684FF0FF3000F003F9064A7B68A1
:1013BC001360002300E0012318460837BD4680BDAA
:1013CC0050000020580000205400002080B400AFD2
:1013DC00054B1B781A46054B1B681344034A1360D4
:1013EC0000BFBD4680BC7047580000203001002073
:1013FC0080B400AF024B1B681846BD4680BC7047DA
:10140C003001002080B485B000AF78607B6803F0B9
:10141C000703FB600C4BDB68BB60BA684FF6FF033D
:10142C001340BB60FB681A02BB68134343F0BF63F5
:10143C0043F40033BB60044ABB68D36000BF14376D
:10144C00BD4680BC704700BF00ED00E080B400AF2B
:10145C00044BDB681B0A03F007031846BD4680BC2F
:10146C00704700BF00ED00E080B483B000AF0346CE
:10147C00FB7197F90730002B0BDBFB7903F01F0294
:10148C00064997F907305B09012000FA02F241F88E
:10149C00232000BF0C37BD4680BC704700E100E044
:1014AC0080B483B000AF03463960FB7197F9073005
:1014BC00002B0ADB3B68DAB20C4997F907301201B2
:1014CC00D2B20B4483F800230AE03B68DAB2084935
:1014DC00FB7903F00F03043B1201D2B20B441A76D2
:1014EC0000BF0C37BD4680BC704700BF00E100E078
:1014FC0000ED00E080B489B000AFF860B9607A60AC
:10150C00FB6803F00703FB61FB69C3F10703042BC2
:10151C0028BF0423BB61FB690433062B02D9FB698A
:10152C00033B00E000237B614FF0FF32BB6902FA02
:10153C0003F3DA43BB681A407B699A404FF0FF31E2
:10154C007B6901FA03F3D9437B680B4013431846BC
:10155C002437BD4680BC704780B582B000AF786040
:10156C007B68013BB3F1807F01D301230FE00A4A72
:10157C007B68013B53600F214FF0FF30FFF790FF6A
:10158C00054B00229A60044B07221A600023184670
:10159C000837BD4680BD00BF10E000E080B582B0CA
:1015AC0000AF78607868FFF72DFF00BF0837BD46A5
:1015BC0080BD80B586B000AF0346B9607A60FB731E
:1015CC0000237B61FFF742FF78617A68B96878691C
:1015DC00FFF790FF024697F90F3011461846FFF7B8
:1015EC005FFF00BF1837BD4680BD80B582B000AF2D
:1015FC000346FB7197F907301846FFF735FF00BF1C
:10160C000837BD4680BD80B582B000AF7860786881
:10161C00FFF7A2FF034618460837BD4680BD000001
:10162C0080B48BB000AF7860396000237B620023FC
:10163C003B6248E101227B6A02FA03F3FB613B68DF
:10164C001B68FA691340BB61BA69FB699A4240F0A6
:10165C0037813B685B68A34A93425ED0A14A9342B0
:10166C0075D8A14A934258D09F4A93426FD89F4A4B
:10167C00934252D09D4A934269D89D4A93424CD092
:10168C009B4A934263D89B4A934246D0994A9342D1
:10169C005DD8122B2AD8122B59D801A252F823F05C
:1016AC002717000801170008131700085517000822
:1016BC005B1700085B1700085B1700085B17000836
:1016CC005B1700085B1700085B1700085B17000826
:1016DC005B1700085B1700085B1700085B17000816
:1016EC005B170008091700081D170008824A93426F
:1016FC0013D02CE03B68DB683B6229E03B68DB687D
:10170C0004333B6224E03B68DB6808333B621FE038
:10171C003B68DB680C333B621AE03B689B68002B30
:10172C0002D104233B6213E03B689B68012B05D17B
:10173C0008233B627B68FA691A6109E008233B6263
:10174C007B68FA695A6103E000233B6200E000BF4A
:10175C00BB69FF2B01D87B6801E07B6804337B619C
:10176C00BB69FF2B02D87B6A9B0002E07B6A083BBB
:10177C009B003B617B691A680F213B6901FA03F3FB
:10178C00DB431A40396A3B6901FA03F31A437B695C
:10179C001A603B685B6803F08053002B00F090806C
:1017AC00564B9B69554A43F001039361534B9B691C
:1017BC0003F00103BB60BB68514A7B6A9B08023390
:1017CC0052F82330FB607B6A03F003039B000F226B
:1017DC0002FA03F3DB43FA681340FB607B68494A67
:1017EC0093420DD07B68484A934207D07B68474AA6
:1017FC00934201D1022304E0032302E0012300E021
:10180C0000237A6A02F0030292009340FA681343B1
:10181C00FB603B497B6A9B080233FA6841F8232042
:10182C003B685B6803F48013002B06D0384B9A6836
:10183C003749BB6913438B6006E0354B9A68BB692B
:10184C00DB43334913408B603B685B6803F4001344
:10185C00002B06D02E4BDA682D49BB691343CB60A5
:10186C0006E02B4BDA68BB69DB4329491340CB609C
:10187C003B685B6803F40033002B06D0244B5A689A
:10188C002349BB6913434B6006E0214B5A68BB6983
:10189C00DB431F4913404B603B685B6803F48033A8
:1018AC00002B06D01A4B1A681949BB6913430B60FD
:1018BC0006E0174B1A68BB69DB43154913400B60F4
:1018CC007B6A01337B623B681A687B6A22FA03F3FA
:1018DC00002B7FF4AFAE00BF00BF2C37BD4680BCE1
:1018EC00704700BF000032100000311000002210C1
:1018FC000000211000001210000011100010024016
:10190C000000014000080140000C014000100140A3
:10191C000004014080B485B000AF78600B467B803A
:10192C007B689A687B881340002B02D00123FB73E1
:10193C0001E00023FB73FB7B18461437BD4680BCCB
:10194C00704780B483B000AF78600B467B80134641
:10195C007B707B78002B03D07A887B681A6103E05C
:10196C007B881A047B681A6100BF0C37BD4680BCAB
:10197C00704780B485B000AF78600B467B807B6885
:10198C00DB68FB607A88FB6813401A04FB68D94358
:10199C007B880B401A437B681A6100BF1437BD4625
:1019AC0080BC704780B586B000AF78607B68002B38
:1019BC0001D101236CE27B681B6803F00103002B4F
:1019CC0000F08780924B5B6803F00C03042B0CD067
:1019DC008F4B5B6803F00C03082B12D18C4B5B68AC
:1019EC0003F48033B3F5803F0BD1894B1B6803F4B0
:1019FC000033002B6CD07B685B68002B68D1012313
:101A0C0046E27B685B68B3F5803F06D1804B1B6870
:101A1C007F4A43F4803313602EE07B685B68002BB5
:101A2C000CD17B4B1B687A4A23F480331360784BC0
:101A3C001B68774A23F4802313601DE07B685B6886
:101A4C00B3F5A02F0CD1724B1B68714A43F4802361
:101A5C0013606F4B1B686E4A43F4803313600BE0CA
:101A6C006B4B1B686A4A23F480331360684B1B680A
:101A7C00674A23F4802313607B685B68002B13D0C8
:101A8C00FFF7B6FC386108E0FFF7B2FC02463B6991
:101A9C00D31A642B01D90323FAE15D4B1B6803F4C1
:101AAC000033002BF0D014E0FFF7A2FC386108E003
:101ABC00FFF79EFC02463B69D31A642B01D9032322
:101ACC00E6E1534B1B6803F40033002BF0D100E02C
:101ADC0000BF7B681B6803F00203002B63D04C4BE8
:101AEC005B6803F00C03002B0BD0494B5B6803F0D5
:101AFC000C03082B1CD1464B5B6803F48033002B82
:101B0C0016D1434B1B6803F00203002B05D07B68F6
:101B1C001B69012B01D00123BAE13D4B1B6823F05B
:101B2C00F8027B685B69DB00394913430B603AE0D0
:101B3C007B681B69002B20D0364B01221A60FFF703
:101B4C0057FC386108E0FFF753FC02463B69D31A97
:101B5C00022B01D903239BE12D4B1B6803F00203DD
:101B6C00002BF0D02A4B1B6823F0F8027B685B69D2
:101B7C00DB00274913430B6015E0264B00221A604B
:101B8C00FFF736FC386108E0FFF732FC02463B6990
:101B9C00D31A022B01D903237AE11D4B1B6803F0E6
:101BAC000203002BF0D17B681B6803F00803002BA9
:101BBC003AD07B689B69002B19D0174B01221A6015
:101BCC00FFF716FC386108E0FFF712FC02463B6990
:101BDC00D31A022B01D903235AE10D4B5B6A03F094
:101BEC000203002BF0D0012000F09AFA1CE00A4B03
:101BFC0000221A60FFF7FCFB38610FE0FFF7F8FBDF
:101C0C0002463B69D31A022B08D9032340E100BFDB
:101C1C000010024000004242800442429E4B5B6A2C
:101C2C0003F00203002BE9D17B681B6803F004036B
:101C3C00002B00F0A6800023FB75974BDB6903F0AB
:101C4C008053002B0DD1944BDB69934A43F08053A6
:101C5C00D361914BDB6903F08053BB60BB680123FC
:101C6C00FB758E4B1B6803F48073002B18D18B4BC8
:101C7C001B688A4A43F480731360FFF7B9FB386121
:101C8C0008E0FFF7B5FB02463B69D31A642B01D978
:101C9C000323FDE0814B1B6803F48073002BF0D011
:101CAC007B68DB68012B06D17B4B1B6A7A4A43F0BD
:101CBC00010313622DE07B68DB68002B0CD1764BA3
:101CCC001B6A754A23F001031362734B1B6A724A39
:101CDC0023F0040313621CE07B68DB68052B0CD13A
:101CEC006D4B1B6A6C4A43F0040313626A4B1B6A0C
:101CFC00694A43F0010313620BE0674B1B6A664AA7
:101D0C0023F001031362644B1B6A634A23F0040340
:101D1C0013627B68DB68002B15D0FFF769FB386119
:101D2C000AE0FFF765FB02463B69D31A41F28832A1
:101D3C00934201D90323ABE0574B1B6A03F0020318
:101D4C00002BEED014E0FFF753FB38610AE0FFF7ED
:101D5C004FFB02463B69D31A41F28832934201D9B8
:101D6C00032395E04C4B1B6A03F00203002BEED1CE
:101D7C00FB7D012B05D1484BDB69474A23F080538F
:101D8C00D3617B68DB69002B00F08180424B5B6880
:101D9C0003F00C03082B61D07B68DB69022B46D166
:101DAC003F4B00221A60FFF723FB386108E0FFF776
:101DBC001FFB02463B69D31A022B01D9032367E0B0
:101DCC00354B1B6803F00073002BF0D17B681B6A4A
:101DDC00B3F5803F08D1304B5B6823F400327B684D
:101DEC009B682D4913434B602B4B5B6823F4741297
:101DFC007B68196A7B685B6A0B43274913434B600A
:101E0C00274B01221A60FFF7F3FA386108E0FFF75D
:101E1C00EFFA02463B69D31A022B01D9032337E0B0
:101E2C001D4B1B6803F00073002BF0D02FE01C4BF4
:101E3C0000221A60FFF7DCFA386108E0FFF7D8FAE5
:101E4C0002463B69D31A022B01D9032320E0124B23
:101E5C001B6803F00073002BF0D118E07B68DB6982
:101E6C00012B01D1012313E00B4B5B68FB60FB687A
:101E7C0003F480327B681B6A9A4206D1FB6803F438
:101E8C0070127B685B6A9A4201D0012300E0002348
:101E9C0018461837BD4680BD001002400070004047
:101EAC006000424280B584B000AF786039607B68D6
:101EBC00002B01D10123D0E06A4B1B6803F0070310
:101ECC003A689A4210D9674B1B6823F007026549A0
:101EDC003B6813430B60634B1B6803F007033A68C2
:101EEC009A4201D00123B8E07B681B6803F002031F
:101EFC00002B20D07B681B6803F00403002B05D05B
:101F0C00594B5B68584A43F4E06353607B681B6829
:101F1C0003F00803002B05D0534B5B68524A43F483
:101F2C0060535360504B5B6823F0F0027B689B68F6
:101F3C004D4913434B607B681B6803F00103002B76
:101F4C0040D07B685B68012B07D1474B1B6803F4BF
:101F5C000033002B15D101237FE07B685B68022BDB
:101F6C0007D1414B1B6803F00073002B09D10123EF
:101F7C0073E03D4B1B6803F00203002B01D10123DE
:101F8C006BE0394B5B6823F003027B685B68364976
:101F9C0013434B60FFF72CFAF8600AE0FFF728FABE
:101FAC000246FB68D31A41F28832934201D90323CB
:101FBC0053E02D4B5B6803F00C027B685B689B0065
:101FCC009A42EBD1274B1B6803F007033A689A42FD
:101FDC0010D2244B1B6823F0070222493B681343A1
:101FEC000B60204B1B6803F007033A689A4201D040
:101FFC00012332E07B681B6803F00403002B08D03C
:10200C00194B5B6823F4E0627B68DB681649134369
:10201C004B607B681B6803F00803002B09D0124B44
:10202C005B6823F460527B681B69DB000E49134329
:10203C004B6000F021F802460B4B5B681B0903F068
:10204C000F030A49CB5C22FA03F3094A1360094BCC
:10205C001B681846FFF78AF9002318461037BD464F
:10206C0080BD00BF0020024000100240A8290008DB
:10207C00500000205400002080B487B000AF002333
:10208C00FB600023BB6000237B6100237B6000238B
:10209C003B611E4B5B68FB60FB6803F00C03042B7D
:1020AC0002D0082B03D027E0194B3B6127E0FB68DB
:1020BC009B0C03F00F03174AD35C7B60FB6803F4A3
:1020CC008033002B10D0114B5B685B0C03F00103C9
:1020DC00114AD35CBB607B680D4A02FB03F2BB6800
:1020EC00B2FBF3F37B6104E07B680C4A02FB03F365
:1020FC007B617B693B6102E0054B3B6100BF3B6947
:10210C0018461C37BD4680BC704700BF001002400B
:10211C0000127A00B8290008C829000800093D00FF
:10212C0080B485B000AF78600A4B1B680A4AA2FBEA
:10213C0003235B0A7A6802FB03F3FB6000BFFB68B6
:10214C005A1EFA60002BF9D100BF00BF1437BD46F0
:10215C0080BC704750000020D34D621080B582B017
:10216C0000AF78607B68002B01D1012341E07B68D4
:10217C0093F83D30DBB2002B06D17B68002283F84C
:10218C003C207868FFF75AF87B68022283F83D20E0
:10219C007B681A687B6804331946104600F06EFAA7
:1021AC007B68012283F846207B68012283F83E205D
:1021BC007B68012283F83F207B68012283F8402052
:1021CC007B68012283F841207B68012283F842203E
:1021DC007B68012283F843207B68012283F844202A
:1021EC007B68012283F845207B68012283F83D201F
:1021FC00002318460837BD4680BD000080B485B06A
:10220C0000AF78607B6893F83D30DBB2012B01D0D6
:10221C00012335E07B68022283F83D207B681B6834
:10222C00DA687B681B6842F00102DA607B681B6825
:10223C00164A934209D07B681B68B3F1804F04D0D7
:10224C007B681B68124A934211D17B681B689B68A0
:10225C0003F00703FB60FB68062B10D07B681B6840
:10226C001A687B681B6842F001021A6007E07B6801
:10227C001B681A687B681B6842F001021A60002315
:10228C0018461437BD4680BC704700BF002C014077
:10229C000004004080B582B000AF78607B681B689A
:1022AC001B6903F00203022B22D17B681B68DB68DD
:1022BC0003F00203022B1BD17B681B686FF0020238
:1022CC001A617B6801221A777B681B689B6903F093
:1022DC000303002B03D0786800F0B4F905E07868AC
:1022EC0000F0A7F9786800F0B6F97B6800221A773D
:1022FC007B681B681B6903F00403042B22D17B68E9
:10230C001B68DB6803F00403042B1BD17B681B6880
:10231C006FF004021A617B6802221A777B681B68D3
:10232C009B6903F44073002B03D0786800F08AF9A2
:10233C0005E0786800F07DF9786800F08CF97B682E
:10234C0000221A777B681B681B6903F00803082BB3
:10235C0022D17B681B68DB6803F00803082B1BD1B8
:10236C007B681B686FF008021A617B6804221A777D
:10237C007B681B68DB6903F00303002B03D07868D0
:10238C0000F060F905E0786800F053F9786800F027
:10239C0062F97B6800221A777B681B681B6903F063
:1023AC001003102B22D17B681B68DB6803F0100331
:1023BC00102B1BD17B681B686FF010021A617B68B5
:1023CC0008221A777B681B68DB6903F44073002BC7
:1023DC0003D0786800F036F905E0786800F029F948
:1023EC00786800F038F97B6800221A777B681B68E4
:1023FC001B6903F00103012B0ED17B681B68DB68A2
:10240C0003F00103012B07D17B681B686FF00102FD
:10241C001A617868FEF7D8FD7B681B681B6903F0AE
:10242C008003802B0ED17B681B68DB6803F0800374
:10243C00802B07D17B681B686FF080021A6178686B
:10244C0000F06BFA7B681B681B6903F04003402BA0
:10245C000ED17B681B68DB6803F04003402B07D16F
:10246C007B681B686FF040021A61786800F0FCF81A
:10247C007B681B681B6903F02003202B0ED17B6843
:10248C001B68DB6803F02003202B07D17B681B68DB
:10249C006FF020021A61786800F036FA00BF083736
:1024AC00BD4680BD80B584B000AF78603960002334
:1024BC00FB737B6893F83C30012B01D10223B4E011
:1024CC007B68012283F83C207B68022283F83D2044
:1024DC007B681B689B68BB60BB6823F07703BB60A1
:1024EC00BB6823F47F43BB607B681B68BA689A6047
:1024FC003B681B68B3F5005F3ED0B3F5005F00F29C
:10250C008780B3F5805F00F08680B3F5805F7FD85D
:10251C00702B1AD0702B7BD8602B50D0602B77D8B7
:10252C00502B3CD0502B73D8402B58D0402B6FD80D
:10253C00302B64D0302B6BD8202B60D0202B67D85D
:10254C00002B5CD0102B5AD062E07B6818683B687B
:10255C0099683B685A683B68DB6800F05EF97B68F9
:10256C001B689B68BB60BB6843F07703BB607B68F0
:10257C001B68BA689A604FE07B6818683B6899687A
:10258C003B685A683B68DB6800F047F97B681B685E
:10259C009A687B681B6842F480429A603CE07B68D6
:1025AC0018683B6859683B68DB681A4600F0BEF84F
:1025BC007B681B685021184600F015F92CE07B68ED
:1025CC0018683B6859683B68DB681A4600F0DCF811
:1025DC007B681B686021184600F005F91CE07B68DD
:1025EC0018683B6859683B68DB681A4600F09EF82F
:1025FC007B681B684021184600F0F5F80CE07B68FE
:10260C001A683B681B681946104600F0ECF803E0AA
:10261C000123FB7300E000BF7B68012283F83D209F
:10262C007B68002283F83C20FB7B18461037BD46A4
:10263C0080BD80B483B000AF786000BF0C37BD465E
:10264C0080BC704780B483B000AF786000BF0C379B
:10265C00BD4680BC704780B483B000AF786000BFCB
:10266C000C37BD4680BC704780B483B000AF786037
:10267C0000BF0C37BD4680BC7047000080B485B0ED
:10268C0000AF786039607B681B68FB607B68254A0B
:10269C00934207D07B68B3F1804F03D07B68224A0A
:1026AC00934208D1FB6823F07003FB603B685B68C6
:1026BC00FA681343FB607B681A4A934207D07B6825
:1026CC00B3F1804F03D07B68174A934208D1FB6863
:1026DC0023F44073FB603B68DB68FA681343FB60D0
:1026EC00FB6823F080023B685B691343FB607B68EB
:1026FC00FA681A603B689A687B68DA623B681A6809
:10270C007B689A627B68074A934203D13B681A69DB
:10271C007B681A637B6801225A6100BF1437BD467F
:10272C0080BC7047002C01400004004080B487B08E
:10273C0000AFF860B9607A60FB681B6A7B61FB686C
:10274C001B6A23F00102FB681A62FB689B693B6100
:10275C003B6923F0F0033B617B681B013A6913432F
:10276C003B617B6923F00A037B617A69BB68134385
:10277C007B61FB683A699A61FB687A691A6200BFEF
:10278C001C37BD4680BC704780B487B000AFF86082
:10279C00B9607A60FB681B6A7B61FB681B6A23F07B
:1027AC001002FB681A62FB689B693B613B6923F46E
:1027BC0070433B617B681B033A6913433B617B6944
:1027CC0023F0A0037B61BB681B017A6913437B6117
:1027DC00FB683A699A61FB687A691A6200BF1C3718
:1027EC00BD4680BC704780B485B000AF786039605E
:1027FC007B689B68FB60FB6823F07003FB603A68A6
:10280C00FB68134343F00703FB607B68FA689A602C
:10281C0000BF1437BD4680BC704780B487B000AF92
:10282C00F860B9607A603B60FB689B687B617B6990
:10283C0023F47F437B613B681A027B681A43BB68B5
:10284C0013437A6913437B61FB687A699A6000BF12
:10285C001C37BD4680BC704780B485B000AF786033
:10286C0039607B6893F83C30012B01D1022341E0A5
:10287C007B68012283F83C207B68022283F83D2090
:10288C007B681B685B68FB607B681B689B68BB6034
:10289C00FB6823F07003FB603B681B68FA6813430A
:1028AC00FB607B681B68FA685A607B681B68144A7B
:1028BC00934209D07B681B68B3F1804F04D07B68CE
:1028CC001B68104A93420CD1BB6823F08003BB6099
:1028DC003B685B68BA681343BB607B681B68BA686B
:1028EC009A607B68012283F83D207B68002283F884
:1028FC003C20002318461437BD4680BC704700BFEF
:10290C00002C01400004004080B483B000AF78601C
:10291C0000BF0C37BD4680BC704780B483B000AF9D
:10292C00786000BF0C37BD4680BC704770B5002680
:10293C000C4D0D4C641BA410A64209D100F022F8DA
:10294C0000260A4D0A4C641BA410A64205D170BD8A
:10295C0055F8043B98470136EEE755F8043B984789
:10296C000136F2E7CC290008CC290008CC29000854
:10297C00D029000803460244934200D1704703F863
:10298C00011BF9E7F8B500BFF8BC08BC9E467047C0
:0C299C00F8B500BFF8BC08BC9E467047B0
:1029A80000000000000000000102030406070809F7
:1029B80002030405060708090A0B0C0D0E0F101078
:0429C8000102000008
:0429CC0031010008CD
:0429D0000D010008ED
:1029D4000010002000400000010000000100000081
:1029E40001000000010000000100000001000000DF
:1029F40001000000010000000100000001000000CF
:102A04000100000001000000C8000000C800000030
:102A1400C8000000050000000200000003000000E0
:0C2A24000024F40010000000010000007D
:0400000508001301DB
:00000001FF
