:020000040800F2
:100000000028002021170008B1160008B7160008C4
:10001000BD160008C3160008C9160008000000003D
:10002000000000000000000000000000CF160008E3
:10003000DB16000800000000E7160008F3160008B1
:100040006917000869170008691700086917000890
:100050006917000869170008691700086917000880
:100060006917000869170008691700086917000870
:100070006917000869170008691700086917000860
:100080006917000869170008691700086917000850
:100090006917000869170008691700086917000840
:1000A0006917000869170008691700086917000830
:1000B0000117000869170008000000006917000810
:1000C0006917000800000000000000006917000820
:1000D0000000000069170008691700080000000010
:1000E0006917000869170008691700080000000078
:1000F0000000000000000000000000000000000000
:0C01000000000000000000005FF808F1A3
:10010C0010B5054C237833B9044B13B10448AFF345
:10011C0000800123237010BD5C0000200000000053
:10012C00802D000808B5034B1BB103490348AFF3FE
:10013C00008008BD0000000060000020802D000839
:10014C0080B483B000AF7860094A7B6852F82330E2
:10015C00012B06D1064A7B68002142F823100123AB
:10016C0000E0002318460C37BD4680BC704700BF2A
:10017C007800002080B483B000AF7860044A7B68BC
:10018C00012142F8231000BF0C37BD4680BC7047DC
:10019C007800002080B582B000AF00237B6069E05E
:1001AC00384A7B6852F8232037497B6841F8232072
:1001BC00364A7B6852F8232032497B6841F8232069
:1001CC00334A7B6832F813301946324801F0B2FDDD
:1001DC00034619462D4A7B6842F82310294A7B684E
:1001EC0052F8232029497B6851F823309A423ED19A
:1001FC00244A7B6852F8232023497B6851F823302A
:10020C009A4234D1204A7B6852F8232022497B68D9
:10021C0051F823309A4216D01B4A7B6852F823209F
:10022C001D497B6841F823201B4A7B6852F8233018
:10023C00002B1CD1194A7B68C82142F8231078681E
:10024C00FFF798FF13E0154A7B6852F823305A1ECB
:10025C0012497B6841F82320104A7B6852F82330FE
:10026C00002B04D10C4A7B68012142F823107B68D7
:10027C0001337B607B68022B92DD00BF00BF083727
:10028C00BD4680BD14000020200000200800002086
:10029C0000000020000C01402C0000203800002041
:1002AC0080B500AF01224FF480710B4801F059FD6D
:1002BC0001224FF40071084801F053FD01224FF464
:1002CC008061054801F04DFD01224FF400610248A8
:1002DC0001F047FD00BF80BD0008014080B582B031
:1002EC0000AF78607B68002B23D100220121C2482B
:1002FC0001F037FD00220221BF4801F032FD00223F
:10030C000421BD4801F02DFD00220821BA4801F05E
:10031C0028FD00221021B84801F023FD00222021E5
:10032C00B54801F01EFD01224021B34801F019FD32
:10033C005DE17B68012B23D101220121AE4801F044
:10034C0010FD00220221AC4801F00BFD002204211B
:10035C00A94801F006FD01220821A74801F001FD82
:10036C0001221021A44801F0FCFC01222021A2480A
:10037C0001F0F7FC012240219F4801F0F2FC36E12C
:10038C007B68022B23D1002201219B4801F0E9FC60
:10039C0000220221984801F0E4FC01220421964835
:1003AC0001F0DFFC00220821934801F0DAFC002266
:1003BC001021914801F0D5FC012220218E4801F03A
:1003CC00D0FC002240218C4801F0CBFC0FE17B6873
:1003DC00032B23D100220121874801F0C2FC00220B
:1003EC000221854801F0BDFC00220421824801F065
:1003FC00B8FC00220821804801F0B3FC0122102136
:10040C007D4801F0AEFC012220217B4801F0A9FCC3
:10041C0000224021784801F0A4FCE8E07B68042B22
:10042C0023D101220121744801F09BFC00220221FE
:10043C00714801F096FC002204216F4801F091FCF8
:10044C00012208216C4801F08CFC012210216A4821
:10045C0001F087FC00222021674801F082FC002279
:10046C004021654801F07DFCC1E07B68052B23D160
:10047C0000220121604801F074FC012202215E4837
:10048C0001F06FFC002204215B4801F06AFC0022A1
:10049C000821594801F065FC01221021564801F051
:1004AC0060FC00222021544801F05BFC002240211A
:1004BC00514801F056FC9AE07B68062B23D10022B0
:1004CC0001214D4801F04DFC012202214A4801F066
:1004DC0048FC00220421484801F043FC002208217A
:1004EC00454801F03EFC00221021434801F039FC44
:1004FC0000222021404801F034FC002240213E48DB
:10050C0001F02FFC73E07B68072B23D10022012123
:10051C00394801F026FC00220221374801F021FC69
:10052C0000220421344801F01CFC0122082132482D
:10053C0001F017FC012210212F4801F012FC0122BE
:10054C0020212D4801F00DFC012240212A4801F008
:10055C0008FC4CE07B68082B23D1002201212648A3
:10056C0001F0FFFB00220221234801F0FAFB0022DC
:10057C000421214801F0F5FB002208211E4801F05E
:10058C00F0FB002210211C4801F0EBFB0022202183
:10059C00194801F0E6FB00224021174801F0E1FB6D
:1005AC0025E07B68092B22D100220121124801F0A1
:1005BC00D8FB00220221104801F0D3FB00220421B9
:1005CC000D4801F0CEFB002208210B4801F0C9FBBD
:1005DC0001221021084801F0C4FB0022202106480A
:1005EC0001F0BFFB00224021034801F0BAFB00BF21
:1005FC000837BD4680BD00BF000C014080B582B0FD
:10060C0000AF7860FFF74CFE1B4A7B6852F8233032
:10061C001846FFF763FE7B68032B27D801A252F81C
:10062C0023F000BF410600084F0600085D060008D5
:10063C006B06000800224FF48071104801F091FB0A
:10064C0015E000224FF400710C4801F08AFB0EE01B
:10065C0000224FF48061094801F083FB07E000227F
:10066C004FF40061054801F07CFB00E000BF00BFC7
:10067C000837BD4680BD00BF88000020000801403F
:10068C0080B500AF914B1B680E2B56D00E2B00F390
:10069C0013810C2B03D00D2B00F09E800CE18C4BA6
:1006AC001B68012B13D1192000F000FF894B1B682C
:1006BC00002B04D100F012FC00F052FC01E000F021
:1006CC0091FC844B1B68C3F10103824A1360012027
:1006DC00FFF736FD0346012B10D17F4B1B6801330E
:1006EC007D4A13607D4B1B6801337C4A13607A4B47
:1006FC001B68632B02DD784B02221A600020FFF787
:10070C001FFD0346012B0CD1012000F0CFFE6F4BD7
:10071C000E221A60724B1B68704A1360714B0322D5
:10072C001A600220FFF70CFD0346012B40F0C68037
:10073C00694B1B686C4A1360C0E0654B1B68012B4E
:10074C0013D1192000F0B2FE624B1B68002B04D1B0
:10075C0000F0DAFB00F01AFC01E000F043FC5D4B0A
:10076C001B68C3F101035B4A13600120FFF7E8FC2F
:10077C000346012B12D15D4B1B6801335B4A13609E
:10078C00564B1B680133554A1360584B1A68564B2D
:10079C001B689A4202DB554B01221A600020FFF7BE
:1007AC00CFFC0346012B0CD1012000F07FFE474B00
:1007BC000D221A604E4B1B68484A1360494B0422A9
:1007CC001A600220FFF7BCFC0346012B78D1474B83
:1007DC001B68434A136073E03D4B1B68012B13D11C
:1007EC00192000F063FE3B4B1B68002B04D100F07A
:1007FC00A1FB00F0E1FB01E000F0F4FB354B1B68C2
:10080C00C3F10103334A13600120FFF799FC03463F
:10081C00012B12D1374B1B680133364A13602F4B17
:10082C001B6801332D4A1360324B1A682E4B1B6820
:10083C009A4202DB2F4B01221A600020FFF780FC4A
:10084C000346012B26D1214B01221A60264B1A6834
:10085C00234B1B68D31A264A1360234B1B681F4A71
:10086C001360234B1B681F4A136000F083F9204B65
:10087C001B68642202FB03F3184600F0C7FD6420DA
:10088C0000F0D8FD012000F0FDFD1B4B00221A608A
:10089C00FFF706FD0220FFF753FC0346012B11D195
:1008AC00144B1B68124A13600F4B1A68104B1B68D1
:1008BC00D31A0B4A136005E000BF04E000BF02E04E
:1008CC0000BF00E000BF00BF80BD00BF840000205F
:1008DC00DC000020B0000020A40000209C000020C0
:1008EC0048000020A000002044000020AC000020A4
:1008FC004C000020A80000209800002080B500AF1C
:10090C00914B1B68042B00F2E38001A252F823F0F8
:10091C003109000853090008AF090008190A00083A
:10092C00730A000800F05EFB874B01221A60874BAC
:10093C001B68642202FB03F3184600F067FD642079
:10094C0000F078FDCDE000F0C9FA00F035FB804BEB
:10095C001B68012B14D1642000F06CFD7D4B1B68CF
:10096C00013B7C4A13607C4B1B68013B7A4A136049
:10097C00794B1B68002B03DC784B1B68764A1360A1
:10098C00774B1B68012B40F0A580744B1B686422CD
:10099C0002FB03F3184600F039FD6B4B02221A6080
:1009AC0098E000F09BFA00F0F1FA694B1B68012B00
:1009BC001CD1642000F03EFD664B1B68013B654A70
:1009CC001360644B1B68002B03DC604B1B68614A93
:1009DC001360614B1B68013B5F4A13605E4B1B68E5
:1009EC00002B03DC5F4B1B685B4A13605C4B1B6882
:1009FC00012B71D1554B1B68642202FB03F3184683
:100A0C0000F004FD504B03221A6065E000F092FAEE
:100A1C0000F0A6FA4E4B1B68012B14D1642000F099
:100A2C0009FD4C4B1B68013B4A4A1360494B1B6840
:100A3C00002B03DC494B1B68464A1360464B1B6872
:100A4C00013B454A1360464B1B68012B46D1434B77
:100A5C001B68642202FB03F3184600F0D7FC3A4BE8
:100A6C0004221A603AE000F04FFA00F079FA384BA1
:100A7C001B68012B1CD1642000F0DCFC354B1B687F
:100A8C00013B344A1360334B1B68002B03DC354BA2
:100A9C001B68304A1360304B1B68013B2E4A1360B5
:100AAC002D4B1B68002B03DC284B1B682A4A136058
:100ABC002B4B1B68012B13D1244B1B68642202FBAC
:100ACC0003F3184600F0A2FC1F4B01221A6007E04A
:100ADC0000BF06E000BF04E000BF02E000BF00E082
:100AEC0000BF0020FFF72CFB0346012B2AD1164B2D
:100AFC001B68012B0BD0144B1B68022B07D0124B1D
:100B0C001B68032B03D0104B1B68042B1AD100F06D
:100B1C0069FA0D4B0C221A60124B1B68124A1360B7
:100B2C000E4B1B68114A1360084B1B68104A13606C
:100B3C00012000F0BBFC0B4B1B68064A1360064BF4
:100B4C0002221A6000BF80BD840000204C000020EF
:100B5C00C40000209C000020A000002048000020C1
:100B6C00BC00002044000020A4000020AC000020A9
:100B7C00A800002080B400AF1A4B1B681A4A82FBF5
:100B8C0003129210DB17D31A184A1360154B19680D
:100B9C00154B83FB01239A10CB17D21A13469B00DB
:100BAC0013445B00CA1A114B5A60114B1B680E4A56
:100BBC0082FB03129210DB17D31A0C4A93600C4B76
:100BCC001968094B83FB01239A10CB17D21A1346D1
:100BDC009B0013445B00CA1A044BDA6000BFBD468D
:100BEC0080BC70479C000020676666668800002009
:100BFC00A000002080B500AF00F0B2FD00F06CF852
:100C0C0000F0F2F800F0A4F8254801F0EFFC012008
:100C1C0000F024FC012000F035FC224B1B68224A1A
:100C2C001360224B1B68224A13601E4B1B68214A1F
:100C3C0013601E4B1B68204A1360204B1B68204A14
:100C4C00136000F0F3F90A2200211E4800F044FA68
:100C5C000A2200211C4800F03FFA1C4B1B68012B98
:100C6C0004D10A2000F0FAFBFFF784FF184B1B6835
:100C7C00012B11D1192000F005FC164B1B685A1CD6
:100C8C0014490A601846FFF7B9FC124B1B68032B7A
:100C9C0002DD104B00221A6000F0F0FADDE700BF15
:100CAC00F0000020440000209C0000204C0000209C
:100CBC00A0000020A4000020A80000204800002074
:100CCC00AC0000208D06000809090008CC000020AB
:100CDC00D40000209800002080B590B000AF07F140
:100CEC00180328220021184602F03CF83B1D002274
:100CFC001A605A609A60DA601A610223BB610123A0
:100D0C00BB621023FB6200237B6307F118031846B8
:100D1C0001F040F80346002B01D000F0D9F80F2366
:100D2C007B600023BB600023FB6000233B6100233E
:100D3C007B613B1D0021184601F0ACFA0346002BE9
:100D4C0001D000F0C5F800BF4037BD4680BD0000A3
:100D5C0080B586B000AF07F1080300221A605A6014
:100D6C009A60DA603B4600221A605A601D4B4FF0C5
:100D7C0080421A601B4B41F63F725A60194B00229D
:100D8C009A60184B0922DA60164B00221A61154B37
:100D9C0000229A61134801F0D9FB0346002B01D0C5
:100DAC0000F096F84FF48053BB6007F10803194626
:100DBC000C4801F06FFD0346002B01D000F088F8C1
:100DCC0000233B6000237B603B461946054801F03D
:100DDC003BFF0346002B01D000F07AF800BF183718
:100DEC00BD4680BDF000002080B586B000AF07F195
:100DFC00080300221A605A609A60DA602A4B9B69D9
:100E0C00294A43F004039361274B9B6903F00403C5
:100E1C007B607B68244B9B69234A43F008039361F6
:100E2C00214B9B6903F008033B603B68012240F6B1
:100E3C00DC711E4800F095FF002220211B4800F0B9
:100E4C0090FF00227F211A4800F08BFF40F6FC73C4
:100E5C00BB600123FB6000233B6102237B6107F134
:100E6C0008031946114800F0EBFD7F23BB600123FA
:100E7C00FB6000233B6102237B6107F108031946E9
:100E8C000B4800F0DDFD4FF4E043BB600023FB603A
:100E9C0001233B6107F108031946054800F0D0FD1A
:100EAC0000BF1837BD4680BD00100240000801404D
:100EBC00000C014080B582B000AF786000F00AFBF6
:100ECC00FFF768F900F07AF900BF0837BD4680BD1E
:100EDC0080B400AF72B600BFFEE7000080B500AF73
:100EEC0000220421074800F03CFF0122082105489C
:100EFC0000F037FF01221021024800F032FF00BF42
:100F0C0080BD00BF0008014080B500AF0122042164
:100F1C00074800F026FF01220821054800F021FFB8
:100F2C0000221021024800F01CFF00BF80BD00BF52
:100F3C000008014080B500AF01220421074800F0F1
:100F4C0010FF00220821054800F00BFF01221021A0
:100F5C00024800F006FF00BF80BD00BF0008014042
:100F6C0080B500AF00222021074800F0FAFE0122D4
:100F7C004021054800F0F5FE01228021024800F0D6
:100F8C00F0FE00BF80BD00BF0008014080B500AF7F
:100F9C0001222021074800F0E4FE012240210548EF
:100FAC0000F0DFFE00228021024800F0DAFE00BFD4
:100FBC0080BD00BF0008014080B500AF0122202198
:100FCC00074800F0CEFE00224021054800F0C9FE83
:100FDC0001228021024800F0C4FE00BF80BD00BF8A
:100FEC000008014080B500AF012204210E4800F03A
:100FFC00B8FE012208210C4800F0B3FE012210219A
:10100C00094800F0AEFE01222021074800F0A9FE9D
:10101C0001224021044800F0A4FE01228021024854
:10102C0000F09FFE00BF80BD0008014080B483B07B
:10103C0000AF274B00221A7000237B603EE0244B4C
:10104C001B781946234A0B469B000B449B00134408
:10105C0000221A601E4B1B7819461E4A0B469B0039
:10106C000B449B001344043300221A60184B1B786A
:10107C001946184A0B469B000B449B00134408333B
:10108C0000221A60124B1B781946124A0B469B0021
:10109C000B449B0013440C3300221A700C4B1B782E
:1010AC0019460C4A0B469B000B449B00134410330F
:1010BC004FF0FF321A607B6801337B607B68272B13
:1010CC00BDDD00BF00BF0C37BD4680BC704700BF04
:1010DC00B40000203801002080B485B000AFF86067
:1010EC00B9607A60BB68324AA2FB0323DB08BB60A1
:1010FC007B682F4AA2FB0323DB087B602D4B1B78FC
:10110C00272B4ED82B4B1B7819462B4A0B469B0092
:10111C000B449B001344FA681A60264B1B78194643
:10112C00254A0B469B000B449B0013440433BA68BE
:10113C001A60204B1B7819461F4A0B469B000B4428
:10114C009B00134408337A681A601A4B1B781946B3
:10115C00194A0B469B000B449B0013440C33002292
:10116C001A70144B1A78134B1B7819461046124AF6
:10117C000B469B000B449B001344103318600D4B23
:10118C001B780133DAB20B4B1A700A4B1B785A1EC0
:10119C00094913469B0013449B000B4410331B68F6
:1011AC0001E04FF0FF3318461437BD4680BC704742
:1011BC00CDCCCCCCB40000203801002080B483B05E
:1011CC0000AF00237B6048E02A497A6813469B00F5
:1011DC0013449B000B4404331B68002B13D025498C
:1011EC007A6813469B0013449B000B4404331B6822
:1011FC00591E20487A6813469B0013449B000344F5
:10120C000433196026E01B497A6813469B0013448B
:10121C009B000B440833196816487A6813469B00E8
:10122C0013449B0003440433196012497A68134633
:10123C009B0013449B000B440C331B780133D8B236
:10124C000C497A6813469B0013449B000B440C33E7
:10125C0002461A707B6801337B60074B1B781A4679
:10126C007B689342B0DB00BF00BF0C37BD4680BC2F
:10127C00704700BF38010020B400002080B582B058
:10128C0000AF00237B603AE022497A6813469B004A
:10129C0013449B000B440C331B78002B2CD01D49A2
:1012AC007A6813469B0013449B000B440C331B7849
:1012BC00013BD8B217497A6813469B0013449B0034
:1012CC000B440C3302461A7012497A6813469B0081
:1012DC0013449B000B441B6898470E497A681346CD
:1012EC009B0013449B000B4408331B68002B03D159
:1012FC007B68184600F012F87B6801337B60064B64
:10130C001B781A467B689342BEDB00BF00BF0837D0
:10131C00BD4680BD38010020B400002080B485B0EB
:10132C0000AF786037497A6813469B0013449B00E2
:10133C000B441B68002B01D1FF235EE07B68FB6034
:10134C004DE0FB685A1C2F4913469B0013449B002D
:10135C000B4419682B48FA6813469B0013449B00F6
:10136C0003441960FB685A1C264913469B0013441E
:10137C009B000B44043319682248FA6813469B00FF
:10138C0013449B00034404331960FB685A1C1D4929
:10139C0013469B0013449B000B44083319681948EF
:1013AC00FA6813469B0013449B00034408331960EE
:1013BC00FB685A1C134913469B0013449B000B44B7
:1013CC000C3318780F49FA6813469B0013449B00A2
:1013DC000B440C3302461A70FB680133FB600A4B5A
:1013EC001B781A46FB689342ABDB074B1B78013B1F
:1013FC00DAB2054B1A70044B1B7818461437BD46ED
:10140C0080BC704738010020B400002080B483B049
:10141C0000AF7860054A7B681360054B00221A60A8
:10142C0000BF0C37BD4680BC704700BFB800002021
:10143C00BC00002080B483B000AF7860054A7B68A4
:10144C001360054B00221A6000BF0C37BD4680BCF0
:10145C00704700BFC0000020C400002080B483B0DF
:10146C0000AF7860054A7B681360054B00221A6058
:10147C0000BF0C37BD4680BC704700BFC8000020C1
:10148C00CC00002080B483B000AF7860054A7B6844
:10149C001360054B00221A6000BF0C37BD4680BCA0
:1014AC00704700BFD0000020D400002080B483B06F
:1014BC0000AF7860054A7B681360054B00221A6008
:1014CC0000BF0C37BD4680BC704700BFD800002061
:1014DC00DC00002080B400AF394B1B68002B0BDD07
:1014EC00374B1B68013B364A1360354B1B68002B8E
:1014FC0002DC344B01221A60334B1B68002B0BDDD2
:10150C00314B1B68013B304A13602F4B1B68002B7F
:10151C0002DC2E4B01221A602D4B1B68002B0BDDBD
:10152C002B4B1B68013B2A4A1360294B1B68002B71
:10153C0002DC284B01221A60274B1B68002B0BDDA9
:10154C00254B1B68013B244A1360234B1B68002B63
:10155C0002DC224B01221A60214B1B68002B0BDD95
:10156C001F4B1B68013B1E4A13601D4B1B68002B55
:10157C0002DC1C4B01221A601B4B1B68002B0BDD81
:10158C00194B1B68013B184A1360174B1B68002B47
:10159C0002DC164B01221A60154B1B68002B0BDD6D
:1015AC00134B1B68013B124A1360114B1B68002B39
:1015BC0002DC104B01221A6000BFBD4680BC704794
:1015CC00B8000020BC000020C0000020C400002097
:1015DC00C8000020CC000020D0000020D400002047
:1015EC00D8000020DC000020E0000020E4000020F7
:1015FC00E8000020EC00002080B485B000AF154B53
:10160C009B69144A43F001039361124B9B6903F0ED
:10161C000103BB60BB680F4BDB690E4A43F0805380
:10162C00D3610C4BDB6903F080537B607B680A4B06
:10163C005B68FB60FB6823F0E063FB60FB6843F0D6
:10164C008063FB60044AFB68536000BF1437BD46DF
:10165C0080BC7047001002400000014080B584B08F
:10166C0000AF78607B681B68B3F1804F13D10C4BD3
:10167C00DB690B4A43F00103D361094BDB6903F0CF
:10168C000103FB60FB68002200211C2000F0A1F983
:10169C001C2000F0BAF900BF1037BD4680BD00BF5A
:1016AC000010024080B400AFFEE780B400AFFEE74C
:1016BC0080B400AFFEE780B400AFFEE780B400AFAB
:1016CC00FEE780B400AF00BFBD4680BC704780B45D
:1016DC0000AF00BFBD4680BC704780B400AF00BFF8
:1016EC00BD4680BC704780B500AF00F07FF800BFEE
:1016FC0080BD000080B500AF024800F0C3FF00BF02
:10170C0080BD00BFF000002080B400AF00BFBD461C
:10171C0080BC7047FFF7F8FF0B480C490C4A0023BC
:10172C0002E0D458C4500433C4188C42F9D3094A8B
:10173C00094C002301E013600432A242FBD301F0F8
:10174C00EDFAFFF757FA7047000000205C0000200C
:10175C00C42D00085C0000205C040020FEE70000A3
:10176C0080B500AF084B1B68074A43F010031360A9
:10177C00032000F023F90F2000F008F8FFF73CFFDE
:10178C000023184680BD00BF0020024080B582B007
:10179C0000AF7860124B1A68124B1B7819464FF445
:1017AC007A73B3FBF1F3B2FBF3F3184600F03BF999
:1017BC000346002B01D001230EE07B680F2B0AD8C7
:1017CC00002279684FF0FF3000F003F9064A7B687D
:1017DC001360002300E0012318460837BD4680BD86
:1017EC0050000020580000205400002080B400AFAE
:1017FC00054B1B781A46054B1B681344034A1360B0
:10180C0000BFBD4680BC7047580000205804002023
:10181C0080B400AF024B1B681846BD4680BC7047B5
:10182C005804002080B485B000AF78607B6803F06A
:10183C000703FB600C4BDB68BB60BA684FF6FF0319
:10184C001340BB60FB681A02BB68134343F0BF63D1
:10185C0043F40033BB60044ABB68D36000BF143749
:10186C00BD4680BC704700BF00ED00E080B400AF07
:10187C00044BDB681B0A03F007031846BD4680BC0B
:10188C00704700BF00ED00E080B483B000AF0346AA
:10189C00FB7197F90730002B0BDBFB7903F01F0270
:1018AC00064997F907305B09012000FA02F241F86A
:1018BC00232000BF0C37BD4680BC704700E100E020
:1018CC0080B483B000AF03463960FB7197F90730E1
:1018DC00002B0ADB3B68DAB20C4997F9073012018E
:1018EC00D2B20B4483F800230AE03B68DAB2084911
:1018FC00FB7903F00F03043B1201D2B20B441A76AE
:10190C0000BF0C37BD4680BC704700BF00E100E053
:10191C0000ED00E080B489B000AFF860B9607A6087
:10192C00FB6803F00703FB61FB69C3F10703042B9E
:10193C0028BF0423BB61FB690433062B02D9FB6966
:10194C00033B00E000237B614FF0FF32BB6902FADE
:10195C0003F3DA43BB681A407B699A404FF0FF31BE
:10196C007B6901FA03F3D9437B680B401343184698
:10197C002437BD4680BC704780B582B000AF78601C
:10198C007B68013BB3F1807F01D301230FE00A4A4E
:10199C007B68013B53600F214FF0FF30FFF790FF46
:1019AC00054B00229A60044B07221A60002318464C
:1019BC000837BD4680BD00BF10E000E080B582B0A6
:1019CC0000AF78607868FFF72DFF00BF0837BD4681
:1019DC0080BD80B586B000AF0346B9607A60FB73FA
:1019EC0000237B61FFF742FF78617A68B9687869F8
:1019FC00FFF790FF024697F90F3011461846FFF794
:101A0C005FFF00BF1837BD4680BD80B582B000AF08
:101A1C000346FB7197F907301846FFF735FF00BFF7
:101A2C000837BD4680BD80B582B000AF786078685D
:101A3C00FFF7A2FF034618460837BD4680BD0000DD
:101A4C0080B48BB000AF7860396000237B620023D8
:101A5C003B6248E101227B6A02FA03F3FB613B68BB
:101A6C001B68FA691340BB61BA69FB699A4240F082
:101A7C0037813B685B68A34A93425ED0A14A93428C
:101A8C0075D8A14A934258D09F4A93426FD89F4A27
:101A9C00934252D09D4A934269D89D4A93424CD06E
:101AAC009B4A934263D89B4A934246D0994A9342AD
:101ABC005DD8122B2AD8122B59D801A252F823F038
:101ACC00471B0008211B0008331B0008751B00086E
:101ADC007B1B00087B1B00087B1B00087B1B000882
:101AEC007B1B00087B1B00087B1B00087B1B000872
:101AFC007B1B00087B1B00087B1B00087B1B000862
:101B0C007B1B0008291B00083D1B0008824A9342DE
:101B1C0013D02CE03B68DB683B6229E03B68DB6858
:101B2C0004333B6224E03B68DB6808333B621FE014
:101B3C003B68DB680C333B621AE03B689B68002B0C
:101B4C0002D104233B6213E03B689B68012B05D157
:101B5C0008233B627B68FA691A6109E008233B623F
:101B6C007B68FA695A6103E000233B6200E000BF26
:101B7C00BB69FF2B01D87B6801E07B6804337B6178
:101B8C00BB69FF2B02D87B6A9B0002E07B6A083B97
:101B9C009B003B617B691A680F213B6901FA03F3D7
:101BAC00DB431A40396A3B6901FA03F31A437B6938
:101BBC001A603B685B6803F08053002B00F0908048
:101BCC00564B9B69554A43F001039361534B9B69F8
:101BDC0003F00103BB60BB68514A7B6A9B0802336C
:101BEC0052F82330FB607B6A03F003039B000F2247
:101BFC0002FA03F3DB43FA681340FB607B68494A43
:101C0C0093420DD07B68484A934207D07B68474A81
:101C1C00934201D1022304E0032302E0012300E0FC
:101C2C0000237A6A02F0030292009340FA6813438D
:101C3C00FB603B497B6A9B080233FA6841F823201E
:101C4C003B685B6803F48013002B06D0384B9A6812
:101C5C003749BB6913438B6006E0354B9A68BB6907
:101C6C00DB43334913408B603B685B6803F4001320
:101C7C00002B06D02E4BDA682D49BB691343CB6081
:101C8C0006E02B4BDA68BB69DB4329491340CB6078
:101C9C003B685B6803F40033002B06D0244B5A6876
:101CAC002349BB6913434B6006E0214B5A68BB695F
:101CBC00DB431F4913404B603B685B6803F4803384
:101CCC00002B06D01A4B1A681949BB6913430B60D9
:101CDC0006E0174B1A68BB69DB43154913400B60D0
:101CEC007B6A01337B623B681A687B6A22FA03F3D6
:101CFC00002B7FF4AFAE00BF00BF2C37BD4680BCBD
:101D0C00704700BF0000321000003110000022109C
:101D1C0000002110000012100000111000100240F1
:101D2C000000014000080140000C0140001001407F
:101D3C000004014080B485B000AF78600B467B8016
:101D4C007B689A687B881340002B02D00123FB73BD
:101D5C0001E00023FB73FB7B18461437BD4680BCA7
:101D6C00704780B483B000AF78600B467B8013461D
:101D7C007B707B78002B03D07A887B681A6103E038
:101D8C007B881A047B681A6100BF0C37BD4680BC87
:101D9C007047000080B586B000AF78607B68002B80
:101DAC0001D101236CE27B681B6803F00103002B5B
:101DBC0000F08780924B5B6803F00C03042B0CD073
:101DCC008F4B5B6803F00C03082B12D18C4B5B68B8
:101DDC0003F48033B3F5803F0BD1894B1B6803F4BC
:101DEC000033002B6CD07B685B68002B68D101231F
:101DFC0046E27B685B68B3F5803F06D1804B1B687D
:101E0C007F4A43F4803313602EE07B685B68002BC1
:101E1C000CD17B4B1B687A4A23F480331360784BCC
:101E2C001B68774A23F4802313601DE07B685B6892
:101E3C00B3F5A02F0CD1724B1B68714A43F480236D
:101E4C0013606F4B1B686E4A43F4803313600BE0D6
:101E5C006B4B1B686A4A23F480331360684B1B6816
:101E6C00674A23F4802313607B685B68002B13D0D4
:101E7C00FFF7CEFC386108E0FFF7CAFC02463B696D
:101E8C00D31A642B01D90323FAE15D4B1B6803F4CD
:101E9C000033002BF0D014E0FFF7BAFC386108E0F7
:101EAC00FFF7B6FC02463B69D31A642B01D9032316
:101EBC00E6E1534B1B6803F40033002BF0D100E038
:101ECC0000BF7B681B6803F00203002B63D04C4BF4
:101EDC005B6803F00C03002B0BD0494B5B6803F0E1
:101EEC000C03082B1CD1464B5B6803F48033002B8E
:101EFC0016D1434B1B6803F00203002B05D07B6803
:101F0C001B69012B01D00123BAE13D4B1B6823F067
:101F1C00F8027B685B69DB00394913430B603AE0DC
:101F2C007B681B69002B20D0364B01221A60FFF70F
:101F3C006FFC386108E0FFF76BFC02463B69D31A73
:101F4C00022B01D903239BE12D4B1B6803F00203E9
:101F5C00002BF0D02A4B1B6823F0F8027B685B69DE
:101F6C00DB00274913430B6015E0264B00221A6057
:101F7C00FFF74EFC386108E0FFF74AFC02463B696C
:101F8C00D31A022B01D903237AE11D4B1B6803F0F2
:101F9C000203002BF0D17B681B6803F00803002BB5
:101FAC003AD07B689B69002B19D0174B01221A6021
:101FBC00FFF72EFC386108E0FFF72AFC02463B696C
:101FCC00D31A022B01D903235AE10D4B5B6A03F0A0
:101FDC000203002BF0D0012000F09AFA1CE00A4B0F
:101FEC0000221A60FFF714FC38610FE0FFF710FCB9
:101FFC0002463B69D31A022B08D9032340E100BFE8
:10200C000010024000004242800442429E4B5B6A38
:10201C0003F00203002BE9D17B681B6803F0040377
:10202C00002B00F0A6800023FB75974BDB6903F0B7
:10203C008053002B0DD1944BDB69934A43F08053B2
:10204C00D361914BDB6903F08053BB60BB68012308
:10205C00FB758E4B1B6803F48073002B18D18B4BD4
:10206C001B688A4A43F480731360FFF7D1FB386115
:10207C0008E0FFF7CDFB02463B69D31A642B01D96C
:10208C000323FDE0814B1B6803F48073002BF0D01D
:10209C007B68DB68012B06D17B4B1B6A7A4A43F0C9
:1020AC00010313622DE07B68DB68002B0CD1764BAF
:1020BC001B6A754A23F001031362734B1B6A724A45
:1020CC0023F0040313621CE07B68DB68052B0CD146
:1020DC006D4B1B6A6C4A43F0040313626A4B1B6A18
:1020EC00694A43F0010313620BE0674B1B6A664AB3
:1020FC0023F001031362644B1B6A634A23F004034D
:10210C0013627B68DB68002B15D0FFF781FB38610D
:10211C000AE0FFF77DFB02463B69D31A41F2883295
:10212C00934201D90323ABE0574B1B6A03F0020324
:10213C00002BEED014E0FFF76BFB38610AE0FFF7E1
:10214C0067FB02463B69D31A41F28832934201D9AC
:10215C00032395E04C4B1B6A03F00203002BEED1DA
:10216C00FB7D012B05D1484BDB69474A23F080539B
:10217C00D3617B68DB69002B00F08180424B5B688C
:10218C0003F00C03082B61D07B68DB69022B46D172
:10219C003F4B00221A60FFF73BFB386108E0FFF76A
:1021AC0037FB02463B69D31A022B01D9032367E0A4
:1021BC00354B1B6803F00073002BF0D17B681B6A56
:1021CC00B3F5803F08D1304B5B6823F400327B6859
:1021DC009B682D4913434B602B4B5B6823F47412A3
:1021EC007B68196A7B685B6A0B43274913434B6016
:1021FC00274B01221A60FFF70BFB386108E0FFF751
:10220C0007FB02463B69D31A022B01D9032337E0A3
:10221C001D4B1B6803F00073002BF0D02FE01C4B00
:10222C0000221A60FFF7F4FA386108E0FFF7F0FAC1
:10223C0002463B69D31A022B01D9032320E0124B2F
:10224C001B6803F00073002BF0D118E07B68DB698E
:10225C00012B01D1012313E00B4B5B68FB60FB6886
:10226C0003F480327B681B6A9A4206D1FB6803F444
:10227C0070127B685B6A9A4201D0012300E0002354
:10228C0018461837BD4680BD001002400070004053
:10229C006000424280B584B000AF786039607B68E2
:1022AC00002B01D10123D0E06A4B1B6803F007031C
:1022BC003A689A4210D9674B1B6823F007026549AC
:1022CC003B6813430B60634B1B6803F007033A68CE
:1022DC009A4201D00123B8E07B681B6803F002032B
:1022EC00002B20D07B681B6803F00403002B05D067
:1022FC00594B5B68584A43F4E06353607B681B6836
:10230C0003F00803002B05D0534B5B68524A43F48F
:10231C0060535360504B5B6823F0F0027B689B6802
:10232C004D4913434B607B681B6803F00103002B82
:10233C0040D07B685B68012B07D1474B1B6803F4CB
:10234C000033002B15D101237FE07B685B68022BE7
:10235C0007D1414B1B6803F00073002B09D10123FB
:10236C0073E03D4B1B6803F00203002B01D10123EA
:10237C006BE0394B5B6823F003027B685B68364982
:10238C0013434B60FFF744FAF8600AE0FFF740FA9A
:10239C000246FB68D31A41F28832934201D90323D7
:1023AC0053E02D4B5B6803F00C027B685B689B0071
:1023BC009A42EBD1274B1B6803F007033A689A4209
:1023CC0010D2244B1B6823F0070222493B681343AD
:1023DC000B60204B1B6803F007033A689A4201D04C
:1023EC00012332E07B681B6803F00403002B08D048
:1023FC00194B5B6823F4E0627B68DB681649134376
:10240C004B607B681B6803F00803002B09D0124B50
:10241C005B6823F460527B681B69DB000E49134335
:10242C004B6000F021F802460B4B5B681B0903F074
:10243C000F030A49CB5C22FA03F3094A1360094BD8
:10244C001B681846FFF7A2F9002318461037BD4643
:10245C0080BD00BF0020024000100240982D0008F3
:10246C00500000205400002080B487B000AF00233F
:10247C00FB600023BB6000237B6100237B60002397
:10248C003B611E4B5B68FB60FB6803F00C03042B89
:10249C0002D0082B03D027E0194B3B6127E0FB68E7
:1024AC009B0C03F00F03174AD35C7B60FB6803F4AF
:1024BC008033002B10D0114B5B685B0C03F00103D5
:1024CC00114AD35CBB607B680D4A02FB03F2BB680C
:1024DC00B2FBF3F37B6104E07B680C4A02FB03F371
:1024EC007B617B693B6102E0054B3B6100BF3B6953
:1024FC0018461C37BD4680BC704700BF0010024018
:10250C0000127A00A82D0008B82D000800093D0023
:10251C0080B485B000AF78600A4B1B680A4AA2FBF6
:10252C0003235B0A7A6802FB03F3FB6000BFFB68C2
:10253C005A1EFA60002BF9D100BF00BF1437BD46FC
:10254C0080BC704750000020D34D621080B582B023
:10255C0000AF78607B68002B01D1012341E07B68E0
:10256C0093F83D30DBB2002B06D17B68002283F858
:10257C003C207868FFF772F87B68022283F83D20D4
:10258C007B681A687B6804331946104600F06EFAB3
:10259C007B68012283F846207B68012283F83E2069
:1025AC007B68012283F83F207B68012283F840205E
:1025BC007B68012283F841207B68012283F842204A
:1025CC007B68012283F843207B68012283F8442036
:1025DC007B68012283F845207B68012283F83D202B
:1025EC00002318460837BD4680BD000080B485B076
:1025FC0000AF78607B6893F83D30DBB2012B01D0E3
:10260C00012335E07B68022283F83D207B681B6840
:10261C00DA687B681B6842F00102DA607B681B6831
:10262C00164A934209D07B681B68B3F1804F04D0E3
:10263C007B681B68124A934211D17B681B689B68AC
:10264C0003F00703FB60FB68062B10D07B681B684C
:10265C001A687B681B6842F001021A6007E07B680D
:10266C001B681A687B681B6842F001021A60002321
:10267C0018461437BD4680BC704700BF002C014083
:10268C000004004080B582B000AF78607B681B68A6
:10269C001B6903F00203022B22D17B681B68DB68E9
:1026AC0003F00203022B1BD17B681B686FF0020244
:1026BC001A617B6801221A777B681B689B6903F09F
:1026CC000303002B03D0786800F0B4F905E07868B8
:1026DC0000F0A7F9786800F0B6F97B6800221A7749
:1026EC007B681B681B6903F00403042B22D17B68F5
:1026FC001B68DB6803F00403042B1BD17B681B688D
:10270C006FF004021A617B6802221A777B681B68DF
:10271C009B6903F44073002B03D0786800F08AF9AE
:10272C0005E0786800F07DF9786800F08CF97B683A
:10273C0000221A777B681B681B6903F00803082BBF
:10274C0022D17B681B68DB6803F00803082B1BD1C4
:10275C007B681B686FF008021A617B6804221A7789
:10276C007B681B68DB6903F00303002B03D07868DC
:10277C0000F060F905E0786800F053F9786800F033
:10278C0062F97B6800221A777B681B681B6903F06F
:10279C001003102B22D17B681B68DB6803F010033D
:1027AC00102B1BD17B681B686FF010021A617B68C1
:1027BC0008221A777B681B68DB6903F44073002BD3
:1027CC0003D0786800F036F905E0786800F029F954
:1027DC00786800F038F97B6800221A777B681B68F0
:1027EC001B6903F00103012B0ED17B681B68DB68AE
:1027FC0003F00103012B07D17B681B686FF001020A
:10280C001A617868FEF756FB7B681B681B6903F03E
:10281C008003802B0ED17B681B68DB6803F0800380
:10282C00802B07D17B681B686FF080021A61786877
:10283C0000F06BFA7B681B681B6903F04003402BAC
:10284C000ED17B681B68DB6803F04003402B07D17B
:10285C007B681B686FF040021A61786800F0FCF826
:10286C007B681B681B6903F02003202B0ED17B684F
:10287C001B68DB6803F02003202B07D17B681B68E7
:10288C006FF020021A61786800F036FA00BF083742
:10289C00BD4680BD80B584B000AF78603960002340
:1028AC00FB737B6893F83C30012B01D10223B4E01D
:1028BC007B68012283F83C207B68022283F83D2050
:1028CC007B681B689B68BB60BB6823F07703BB60AD
:1028DC00BB6823F47F43BB607B681B68BA689A6053
:1028EC003B681B68B3F5005F3ED0B3F5005F00F2A8
:1028FC008780B3F5805F00F08680B3F5805F7FD86A
:10290C00702B1AD0702B7BD8602B50D0602B77D8C3
:10291C00502B3CD0502B73D8402B58D0402B6FD819
:10292C00302B64D0302B6BD8202B60D0202B67D869
:10293C00002B5CD0102B5AD062E07B6818683B6887
:10294C0099683B685A683B68DB6800F05EF97B6805
:10295C001B689B68BB60BB6843F07703BB607B68FC
:10296C001B68BA689A604FE07B6818683B68996886
:10297C003B685A683B68DB6800F047F97B681B686A
:10298C009A687B681B6842F480429A603CE07B68E2
:10299C0018683B6859683B68DB681A4600F0BEF85B
:1029AC007B681B685021184600F015F92CE07B68F9
:1029BC0018683B6859683B68DB681A4600F0DCF81D
:1029CC007B681B686021184600F005F91CE07B68E9
:1029DC0018683B6859683B68DB681A4600F09EF83B
:1029EC007B681B684021184600F0F5F80CE07B680A
:1029FC001A683B681B681946104600F0ECF803E0B7
:102A0C000123FB7300E000BF7B68012283F83D20AB
:102A1C007B68002283F83C20FB7B18461037BD46B0
:102A2C0080BD80B483B000AF786000BF0C37BD466A
:102A3C0080BC704780B483B000AF786000BF0C37A7
:102A4C00BD4680BC704780B483B000AF786000BFD7
:102A5C000C37BD4680BC704780B483B000AF786043
:102A6C0000BF0C37BD4680BC7047000080B485B0F9
:102A7C0000AF786039607B681B68FB607B68254A17
:102A8C00934207D07B68B3F1804F03D07B68224A16
:102A9C00934208D1FB6823F07003FB603B685B68D2
:102AAC00FA681343FB607B681A4A934207D07B6831
:102ABC00B3F1804F03D07B68174A934208D1FB686F
:102ACC0023F44073FB603B68DB68FA681343FB60DC
:102ADC00FB6823F080023B685B691343FB607B68F7
:102AEC00FA681A603B689A687B68DA623B681A6815
:102AFC007B689A627B68074A934203D13B681A69E8
:102B0C007B681A637B6801225A6100BF1437BD468B
:102B1C0080BC7047002C01400004004080B487B09A
:102B2C0000AFF860B9607A60FB681B6A7B61FB6878
:102B3C001B6A23F00102FB681A62FB689B693B610C
:102B4C003B6923F0F0033B617B681B013A6913433B
:102B5C003B617B6923F00A037B617A69BB68134391
:102B6C007B61FB683A699A61FB687A691A6200BFFB
:102B7C001C37BD4680BC704780B487B000AFF8608E
:102B8C00B9607A60FB681B6A7B61FB681B6A23F087
:102B9C001002FB681A62FB689B693B613B6923F47A
:102BAC0070433B617B681B033A6913433B617B6950
:102BBC0023F0A0037B61BB681B017A6913437B6123
:102BCC00FB683A699A61FB687A691A6200BF1C3724
:102BDC00BD4680BC704780B485B000AF786039606A
:102BEC007B689B68FB60FB6823F07003FB603A68B2
:102BFC00FB68134343F00703FB607B68FA689A6039
:102C0C0000BF1437BD4680BC704780B487B000AF9E
:102C1C00F860B9607A603B60FB689B687B617B699C
:102C2C0023F47F437B613B681A027B681A43BB68C1
:102C3C0013437A6913437B61FB687A699A6000BF1E
:102C4C001C37BD4680BC704780B485B000AF78603F
:102C5C0039607B6893F83C30012B01D1022341E0B1
:102C6C007B68012283F83C207B68022283F83D209C
:102C7C007B681B685B68FB607B681B689B68BB6040
:102C8C00FB6823F07003FB603B681B68FA68134316
:102C9C00FB607B681B68FA685A607B681B68144A87
:102CAC00934209D07B681B68B3F1804F04D07B68DA
:102CBC001B68104A93420CD1BB6823F08003BB60A5
:102CCC003B685B68BA681343BB607B681B68BA6877
:102CDC009A607B68012283F83D207B68002283F890
:102CEC003C20002318461437BD4680BC704700BFFB
:102CFC00002C01400004004080B483B000AF786029
:102D0C0000BF0C37BD4680BC704780B483B000AFA9
:102D1C00786000BF0C37BD4680BC704770B500268C
:102D2C000C4D0D4C641BA410A64209D100F022F8E6
:102D3C0000260A4D0A4C641BA410A64205D170BD96
:102D4C0055F8043B98470136EEE755F8043B984795
:102D5C000136F2E7BC2D0008BC2D0008BC2D000884
:102D6C00C02D000803460244934200D1704703F87B
:102D7C00011BF9E7F8B500BFF8BC08BC9E467047CC
:0C2D8C00F8B500BFF8BC08BC9E467047BC
:102D98000000000000000000010203040607080903
:102DA80002030405060708090A0B0C0D0E0F101084
:042DB8000102000014
:042DBC0031010008D9
:042DC0000D010008F9
:102DC400001000200040000001000000010000008D
:102DD40001000000010000000100000001000000EB
:102DE40001000000010000000100000001000000DB
:102DF4000100000001000000C8000000C80000003D
:102E0400C8000000050000000200000003000000EC
:0C2E14000024F400100000000100000089
:0400000508001721B7
:00000001FF
