:020000040800F2
:1000000000280020ED1800087D180008831800085B
:10001000891800088F1800089518000800000000D3
:100020000000000000000000000000009B18000815
:10003000A718000800000000B3180008BF18000847
:100040003519000835190008351900083519000858
:100050003519000835190008351900083519000848
:100060003519000835190008351900083519000838
:100070003519000835190008351900083519000828
:100080003519000835190008351900083519000818
:100090003519000835190008351900083519000808
:1000A00035190008351900083519000835190008F8
:1000B000CD180008351900080000000035190008A7
:1000C0003519000800000000000000003519000884
:1000D0000000000035190008351900080000000074
:1000E000351900083519000835190008000000000E
:1000F0000000000000000000000000000000000000
:0C01000000000000000000005FF808F1A3
:10010C0010B5054C237833B9044B13B10448AFF345
:10011C0000800123237010BD5C0000200000000053
:10012C004C2F000808B5034B1BB103490348AFF330
:10013C00008008BD00000000600000204C2F00086B
:10014C0080B483B000AF7860094A7B6852F82330E2
:10015C00012B06D1064A7B68002142F823100123AB
:10016C0000E0002318460C37BD4680BC704700BF2A
:10017C007800002080B483B000AF7860044A7B68BC
:10018C00012142F8231000BF0C37BD4680BC7047DC
:10019C007800002080B582B000AF00237B6069E05E
:1001AC00384A7B6852F8232037497B6841F8232072
:1001BC00364A7B6852F8232032497B6841F8232069
:1001CC00334A7B6832F813301946324801F098FEF6
:1001DC00034619462D4A7B6842F82310294A7B684E
:1001EC0052F8232029497B6851F823309A423ED19A
:1001FC00244A7B6852F8232023497B6851F823302A
:10020C009A4234D1204A7B6852F8232022497B68D9
:10021C0051F823309A4216D01B4A7B6852F823209F
:10022C001D497B6841F823201B4A7B6852F8233018
:10023C00002B1CD1194A7B68C82142F8231078681E
:10024C00FFF798FF13E0154A7B6852F823305A1ECB
:10025C0012497B6841F82320104A7B6852F82330FE
:10026C00002B04D10C4A7B68012142F823107B68D7
:10027C0001337B607B68022B92DD00BF00BF083727
:10028C00BD4680BD14000020200000200800002086
:10029C0000000020000C01402C0000203800002041
:1002AC0080B582B000AF00237B6005E07868FFF773
:1002BC0047FF7B6801337B607B68022BF6DD00BF58
:1002CC0000BF0837BD4680BD80B500AF01224FF49A
:1002DC0080710B4801F02BFE01224FF4007108488D
:1002EC0001F025FE01224FF48061054801F01FFE4C
:1002FC0001224FF40061024801F019FE00BF80BDDD
:10030C000008014080B582B000AF78607B68002B9C
:10031C0023D100220121C24801F009FE0022022152
:10032C00BF4801F004FE00220421BD4801F0FFFD8E
:10033C0000220821BA4801F0FAFD00221021B84829
:10034C0001F0F5FD00222021B54801F0F0FD01225D
:10035C004021B34801F0EBFD5DE17B68012B23D11B
:10036C0001220121AE4801F0E2FD00220221AC483D
:10037C0001F0DDFD00220421A94801F0D8FD012285
:10038C000821A74801F0D3FD01221021A44801F057
:10039C00CEFD01222021A24801F0C9FD01224021FD
:1003AC009F4801F0C4FD36E17B68022B23D100226B
:1003BC0001219B4801F0BBFD00220221984801F06D
:1003CC00B6FD01220421964801F0B1FD002208215E
:1003DC00934801F0ACFD00221021914801F0A7FDDB
:1003EC00012220218E4801F0A2FD002240218C48E0
:1003FC0001F09DFD0FE17B68032B23D1002201212D
:10040C00874801F094FD00220221854801F08FFD00
:10041C0000220421824801F08AFD00220821804834
:10042C0001F085FD012210217D4801F080FD0122A3
:10043C0020217B4801F07BFD00224021784801F00F
:10044C0076FDE8E07B68042B23D10122012174485E
:10045C0001F06DFD00220221714801F068FD0022BF
:10046C0004216F4801F063FD012208216C4801F062
:10047C005EFD012210216A4801F059FD0022202165
:10048C00674801F054FD00224021654801F04FFD02
:10049C00C1E07B68052B23D100220121604801F0CB
:1004AC0046FD012202215E4801F041FD002204219B
:1004BC005B4801F03CFD00220821594801F037FD52
:1004CC0001221021564801F032FD0022202154480F
:1004DC0001F02DFD00224021514801F028FD9AE049
:1004EC007B68062B23D1002201214D4801F01FFD12
:1004FC00012202214A4801F01AFD00220421484839
:10050C0001F015FD00220821454801F010FD0022E4
:10051C001021434801F00BFD00222021404801F03E
:10052C0006FD002240213E4801F001FD73E07B688E
:10053C00072B23D100220121394801F0F8FC0022BD
:10054C000221374801F0F3FC00220421344801F069
:10055C00EEFC01220821324801F0E9FC01221021B5
:10056C002F4801F0E4FC012220212D4801F0DFFC92
:10057C00012240212A4801F0DAFC4CE07B68082B70
:10058C0023D100220121264801F0D1FC00220221B6
:10059C00234801F0CCFC00220421214801F0C7FCC7
:1005AC00002208211E4801F0C2FC002210211C4828
:1005BC0001F0BDFC00222021194801F0B8FC0022FA
:1005CC004021174801F0B3FC25E07B68092B22D1B0
:1005DC0000220121124801F0AAFC0022022110483D
:1005EC0001F0A5FC002204210D4801F0A0FC002222
:1005FC0008210B4801F09BFC01221021084801F056
:10060C0096FC00222021064801F091FC002240219A
:10061C00034801F08CFC00BF0837BD4680BD00BF0D
:10062C00000C014080B500AFFFF74EFE214B1B685C
:10063C00214A52F823301846FFF764FE1D4B1B6805
:10064C00032B27D801A252F823F000BF690600083B
:10065C0077060008850600089306000800224FF470
:10066C008071164801F063FC15E000224FF4007114
:10067C00124801F05CFC0EE000224FF480610F4840
:10068C0001F055FC07E000224FF400610B4801F02B
:10069C004EFC00E000BF074B1B680133054A13609A
:1006AC00044B1B68032B02DD024B00221A6000BFB7
:1006BC0080BD00BF98000020880000200008014089
:1006CC0080B500AF8C4B1B680E2B53D00E2B00F358
:1006DC000A810C2B03D00D2B00F0988003E1874B83
:1006EC001B68012B13D1192000F0C6FF844B1B682B
:1006FC00002B04D100F0D0FB00F010FC01E000F066
:10070C004FFC7F4B1B68C3F101037D4A1360002033
:10071C00FFF716FD0346012B0ED1012000F0ACFFB4
:10072C00754B0E221A60774B1B68774A1360774B18
:10073C0003221A60FFF7B4FD0120FFF701FD034609
:10074C00012B0BD1704B1B6801336F4A13606E4B3E
:10075C001B68632B02DD6C4B02221A600220FFF730
:10076C00EFFC0346012B40F0C080674B1B68684AC6
:10077C001360BAE0614B1B68012B13D1192000F0F8
:10078C007BFF5F4B1B68002B04D100F09BFB00F040
:10079C00DBFB01E000F004FC594B1B68C3F10103C7
:1007AC00574A13600020FFF7CBFC0346012B0ED1F8
:1007BC00012000F061FF504B0D221A60554B1B6855
:1007CC00514A1360514B04221A60FFF769FD012056
:1007DC00FFF7B6FC0346012B0DD14B4B1B680133C5
:1007EC00494A1360484B1A68494B1B689A4202DB12
:1007FC00454B01221A600220FFF7A2FC0346012B95
:10080C0075D1414B1B683F4A136070E03B4B1B6832
:10081C00012B13D1192000F02FFF394B1B68002B33
:10082C0004D100F065FB00F0A5FB01E000F0B8FB83
:10083C00334B1B68C3F10103314A13600020FFF7EF
:10084C007FFC0346012B28D12B4B01221A60304B25
:10085C001A682C4B1B68D31A2E4A13602C4B1B683E
:10086C00294A13602B4B1B68284A136000F082F94D
:10087C00284B1B68642202FB03F3184600F0ACFE05
:10088C00642000F0BDFE012000F0E2FE224B0022AD
:10089C001A60FFF719FDFFF703FD0120FFF750FC6D
:1008AC000346012B0DD1184B1B680133164A1360FC
:1008BC00154B1A68164B1B689A4202DB124B01222D
:1008CC001A600220FFF73CFC0346012B11D10E4BA2
:1008DC001B68104A13600E4B1A680E4B1B68D31A18
:1008EC00084A136005E000BF04E000BF02E000BF4F
:1008FC0000E000BF00BF80BD840000209C010020F0
:10090C00A4000020480000209C000020A000002033
:10091C00440000204C0000209800002080B500AF5F
:10092C008C4B1B68042B00F2E38001A252F823F0DD
:10093C005109000873090008CF090008390A00089A
:10094C00930A000800F02CFB824B01221A60824BA8
:10095C001B68642202FB03F3184600F03DFE642082
:10096C0000F04EFECDE000F097FA00F003FB7B4B5D
:10097C001B68012B14D1642000F042FE784B1B68DD
:10098C00013B774A1360774B1B68013B754A136038
:10099C00744B1B68002B03DC734B1B68714A136090
:1009AC00724B1B68012B40F0A5806F4B1B686422B7
:1009BC0002FB03F3184600F00FFE664B02221A608E
:1009CC0098E000F069FA00F0BFFA644B1B68012B49
:1009DC001CD1642000F014FE614B1B68013B604A83
:1009EC0013605F4B1B68002B03DC5B4B1B685C4A82
:1009FC0013605C4B1B68013B5A4A1360594B1B68D4
:100A0C00002B03DC5A4B1B68564A1360574B1B6870
:100A1C00012B71D1504B1B68642202FB03F3184667
:100A2C0000F0DAFD4B4B03221A6065E000F060FA2F
:100A3C0000F074FA494B1B68012B14D1642000F0B0
:100A4C00DFFD474B1B68013B454A1360444B1B6859
:100A5C00002B03DC444B1B68414A1360414B1B6861
:100A6C00013B404A1360414B1B68012B46D13E4B66
:100A7C001B68642202FB03F3184600F0ADFD354BF6
:100A8C0004221A603AE000F01DFA00F047FA334BEA
:100A9C001B68012B1CD1642000F0B2FD304B1B688D
:100AAC00013B2F4A13602E4B1B68002B03DC304B91
:100ABC001B682B4A13602B4B1B68013B294A1360A4
:100ACC00284B1B68002B03DC234B1B68254A136047
:100ADC00264B1B68012B13D11F4B1B68642202FB96
:100AEC0003F3184600F078FD1A4B01221A6007E058
:100AFC0000BF06E000BF04E000BF02E000BF00E062
:100B0C0000BF0020FFF71CFB0346012B20D1114B2B
:100B1C001B68012B0BD00F4B1B68022B07D00D4B06
:100B2C001B68032B03D00B4B1B68042B10D100F05C
:100B3C0037FA084B0C221A60012000F09DFD0C4B7B
:100B4C001B68074A1360074B02221A60FFF7A8FBC9
:100B5C0000BF80BD840000204C00002084010020D8
:100B6C009C000020A0000020480000207C010020F8
:100B7C004400002080B400AF1A4B1B681A4A82FB59
:100B8C0003129210DB17D31A184A1360154B19680D
:100B9C00154B83FB01239A10CB17D21A13469B00DB
:100BAC0013445B00CA1A114B5A60114B1B680E4A56
:100BBC0082FB03129210DB17D31A0C4A93600C4B76
:100BCC001968094B83FB01239A10CB17D21A1346D1
:100BDC009B0013445B00CA1A044BDA6000BFBD468D
:100BEC0080BC70479C000020676666668800002009
:100BFC00A000002080B500AF00F098FE00F04EF889
:100C0C0000F0D4F800F086F8194801F0D5FD012069
:100C1C0000F00AFD012000F01BFD164B1B68164A64
:100C2C001360164B1B68164A136000F0DDF90122A5
:100C3C000021144800F046FA01220021124800F06D
:100C4C0041FA01220021114800F03CFA0122002156
:100C5C000F4800F037FA0A2201210E4800F032FA50
:100C6C00192201210C4800F02DFA00F075FCFCE76C
:100C7C00B0010020440000209C0000204C0000200B
:100C8C00A0000020AD160008A1010008CD06000848
:100C9C0029090008810B00083106000880B590B0C6
:100CAC0000AF07F1180328220021184602F040F982
:100CBC003B1D00221A605A609A60DA601A610223A6
:100CCC00BB610123BB621023FB6200237B6307F132
:100CDC001803184601F044F90346002B01D000F02C
:100CEC00D5F80F237B600023BB600023FB6000233F
:100CFC003B6100237B613B1D0021184601F0B0FBDA
:100D0C000346002B01D000F0C1F800BF4037BD46B0
:100D1C0080BD000080B586B000AF07F1080300224B
:100D2C001A605A609A60DA603B4600221A605A6078
:100D3C001D4B4FF080421A601B4B41F63F725A60BC
:100D4C00194B00229A60184B0922DA60164B0022CC
:100D5C001A61154B00229A61134801F0DDFC034621
:100D6C00002B01D000F092F84FF48053BB6007F1D8
:100D7C00080319460C4801F073FE0346002B01D002
:100D8C0000F084F800233B6000237B603B4619464F
:100D9C00054802F03FF80346002B01D000F076F82E
:100DAC0000BF1837BD4680BDB001002080B586B0AD
:100DBC0000AF07F1080300221A605A609A60DA60EB
:100DCC002A4B9B69294A43F004039361274B9B6987
:100DDC0003F004037B607B68244B9B69234A43F03C
:100DEC0008039361214B9B6903F008033B603B684C
:100DFC00012240F6DC711E4801F099F800222021F6
:100E0C001B4801F094F800227F211A4801F08FF85A
:100E1C0040F6FC73BB600123FB6000233B610223A3
:100E2C007B6107F108031946114800F0EFFE7F23A0
:100E3C00BB600123FB6000233B6102237B6107F154
:100E4C00080319460B4800F0E1FE4FF4E043BB6089
:100E5C000023FB6001233B6107F108031946054899
:100E6C0000F0D4FE00BF1837BD4680BD0010024014
:100E7C0000080140000C014080B582B000AF7860E2
:100E8C0000F0F8F800BF0837BD4680BD80B400AF55
:100E9C0072B600BFFEE7000080B500AF002204214F
:100EAC00074801F044F801220821054801F03FF8F9
:100EBC0001221021024801F03AF800BF80BD00BFAA
:100ECC000008014080B500AF01220421074801F061
:100EDC002EF801220821054801F029F800221021E2
:100EEC00024801F024F800BF80BD00BF000801409B
:100EFC0080B500AF01220421074801F018F8002248
:100F0C000821054801F013F801221021024801F0D4
:100F1C000EF800BF80BD00BF0008014080B500AFD7
:100F2C0000222021074801F002F801224021054847
:100F3C0000F0FDFF01228021024800F0F8FF00BF05
:100F4C0080BD00BF0008014080B500AF0122202108
:100F5C00074800F0ECFF01224021054800F0E7FFB4
:100F6C0000228021024800F0E2FF00BF80BD00BFDC
:100F7C000008014080B500AF01222021074800F095
:100F8C00D6FF00224021054800F0D1FF012280212C
:100F9C00024800F0CCFF00BF80BD00BF000801403C
:100FAC0080B500AF012204210E4800F0C0FF0122E1
:100FBC0008210C4800F0BBFF01221021094800F069
:100FCC00B6FF01222021074800F0B1FF0122402189
:100FDC00044800F0ACFF01228021024800F0A7FF7A
:100FEC0000BF80BD0008014080B483B000AF002377
:100FFC007B6034E01E497A6813469B0013449B00C7
:10100C000B4400221A601A497A6813469B00134459
:10101C009B000B44043300221A6015497A6813466E
:10102C009B0013449B000B44083300221A601049A8
:10103C007A6813469B0013449B000B440C3300222C
:10104C001A700B497A6813469B0013449B000B449F
:10105C0010334FF0FF321A607B6801337B607B6882
:10106C00092BC7DD00BF00BF0C37BD4680BC7047E5
:10107C00A800002080B400AF104B1B6801330F4A4E
:10108C0013600F4B1B68002B13D00D4B1B7B002BDD
:10109C000FD10B4B5B68002B04D0094B5B68013BF9
:1010AC00074A5360064B5B68002B02D1044B0122AC
:1010BC001A7300BFBD4680BC704700BF740100208E
:1010CC00A800002090B589B000AFF860B9607A60D4
:1010DC000023FB770023BB6100233B610023FB77DC
:1010EC0033E1FA7FA14913469B0013449B000B4448
:1010FC0004331B68BA691344BB61BA69BB689A4272
:10110C0040F2C180FA7F994913469B0013449B001F
:10111C000B4404331A68BB69D31ABA6813443B6195
:10112C00FA7FB969BB68C91A904813469B001344EF
:10113C009B000344043319600923FB754CE0FB7DD1
:10114C00591EFA7D89480B469B000B449B000344B7
:10115C001968864813469B0013449B00034419608E
:10116C00FB7D591EFA7D81480B469B000B449B006E
:10117C000344083319687D4813469B0013449B00B5
:10118C00034408331960FB7D591EFA7D77480B46E2
:10119C009B000B449B0003440433196873481346AB
:1011AC009B0013449B00034404331960FB7D591EC0
:1011BC00FA7D6E480B469B000B449B000344103396
:1011CC0019686A4813469B0013449B000344103370
:1011DC001960FB7D013BFB75FA7DFB7F9A42AED813
:1011EC00FA7F624913469B0013449B000B44FA6838
:1011FC001A60FA7F5D4913469B0013449B000B4415
:10120C0004333A691A60FA7F584913469B00134419
:10121C009B000B4408337A681A60FA7F53491346D3
:10122C009B0013449B000B4404331B68002B0AD116
:10123C00FA7F4E4913469B0013449B000B440C331E
:10124C0001221A7009E0FA7F484913469B001344A7
:10125C009B000B440C3300221A70FC7F00F0A4F9A5
:10126C000246424923469B0023449B000B44103307
:10127C001A60FA7F3D4913469B0013449B000B44B4
:10128C0010331B686EE0FA7F384913469B001344F9
:10129C009B000B441B68002B54D1FA7F3349134637
:1012AC009B0013449B000B44FA681A60FA7FB968E0
:1012BC00BB69C91A2D4813469B0013449B00034479
:1012CC0004331960FA7F294913469B0013449B0091
:1012DC000B4408337A681A60FA7F244913469B0042
:1012EC0013449B000B4404331B68002B0AD1FA7F78
:1012FC001E4913469B0013449B000B440C330122E4
:10130C001A7009E0FA7F194913469B0013449B009D
:10131C000B440C3300221A70FC7F00F045F9024696
:10132C00124923469B0023449B000B4410331A6044
:10133C00FA7F0E4913469B0013449B000B44103359
:10134C001B680FE0FB7F0133FB77FB7F092B7FF6DC
:10135C00C8AEFA7F054913469B0013449B000B440F
:10136C0010331B6818462437BD4690BDA8000020DA
:10137C0080B485B000AF786000237B737B68002B52
:10138C0000F0E2800023FB73DAE0FA7B714913462C
:10139C009B0013449B000B4410331B687A689A42E1
:1013AC0040F0CB8001237B73FB7B002B2BD0FB7B92
:1013BC00082B28D8FB7B5A1C664913469B00134408
:1013CC009B000B441B68002B1DD0FB7B5A1C6149F6
:1013DC0013469B0013449B000B4404331968FA7B9F
:1013EC005C4813469B0013449B00034404331B6866
:1013FC00FA7B01321944574813469B0013449B0057
:10140C00034404331960FB7BBB7360E0BB7B591C4A
:10141C00BA7B50480B469B000B449B000344196855
:10142C004C4813469B0013449B0003441960BB7B40
:10143C00591CBA7B47480B469B000B449B0003444A
:10144C0008331968434813469B0013449B0003441C
:10145C0008331960BB7B591CBA7B3E480B469B007A
:10146C000B449B000344043319683A4813469B0011
:10147C0013449B00034404331960BB7B591CBA7B97
:10148C0034480B469B000B449B0003440C331878E8
:10149C00304913469B0013449B000B440C3302460B
:1014AC001A70BB7B591CBA7B2A480B469B000B4419
:1014BC009B00034410331968264813469B001344C1
:1014CC009B00034410331960BB7B0133BB73BB7BA4
:1014DC00082B9BD9BA7B1F4913469B0013449B00D6
:1014EC000B4400221A60BA7B1A4913469B00134422
:1014FC009B000B44083300221A60BA7B1549134633
:10150C009B0013449B000B44043300221A60BA7BEB
:10151C00104913469B0013449B000B440C330022D0
:10152C001A70BA7B0B4913469B0013449B000B4467
:10153C00103300221A607B7B07E0FB7B0133FB73CB
:10154C00FB7B092B7FF621AF7B7B18461437BD46FE
:10155C0080BC7047A8000020B0B586B000AF114B1E
:10156C001B7B002B19D00F4B1B6898470D4B00228F
:10157C001A730C4B3C1D1D460FCD0FC42B682360FA
:10158C007B691846FFF7F4FEFB68002B05D07B68DF
:10159C00F968FA681846FFF795FD00BF1837BD4685
:1015AC00B0BD00BFA800002080B400AF094B1B6881
:1015BC000133084A1360074B1B68002B04D1054B01
:1015CC001B680133034A1360024B1B681846BD4667
:1015DC0080BC70477001002080B483B000AF78608D
:1015EC00054A7B681360054B00221A6000BF0C375C
:1015FC00BD4680BC704700BF780100207C010020F4
:10160C0080B483B000AF7860054A7B681360054BEB
:10161C0000221A6000BF0C37BD4680BC704700BF6B
:10162C00800100208401002080B483B000AF78607A
:10163C00054A7B681360054B00221A6000BF0C370B
:10164C00BD4680BC704700BF880100208C01002083
:10165C0080B483B000AF7860054A7B681360054B9B
:10166C0000221A6000BF0C37BD4680BC704700BF1B
:10167C00900100209401002080B483B000AF78600A
:10168C00054A7B681360054B00221A6000BF0C37BB
:10169C00BD4680BC704700BF980100209C01002013
:1016AC0080B400AF394B1B68002B0BDD374B1B682C
:1016BC00013B364A1360354B1B68002B02DC344B64
:1016CC0001221A60334B1B68002B0BDD314B1B685E
:1016DC00013B304A13602F4B1B68002B02DC2E4B56
:1016EC0001221A602D4B1B68002B0BDD2B4B1B684A
:1016FC00013B2A4A1360294B1B68002B02DC284B48
:10170C0001221A60274B1B68002B0BDD254B1B6835
:10171C00013B244A1360234B1B68002B02DC224B39
:10172C0001221A60214B1B68002B0BDD1F4B1B6821
:10173C00013B1E4A13601D4B1B68002B02DC1C4B2B
:10174C0001221A601B4B1B68002B0BDD194B1B680D
:10175C00013B184A1360174B1B68002B02DC164B1D
:10176C0001221A60154B1B68002B0BDD134B1B68F9
:10177C00013B124A1360114B1B68002B02DC104B0F
:10178C0001221A6000BFBD4680BC70477801002062
:10179C007C010020800100208401002088010020B1
:1017AC008C01002090010020940100209801002061
:1017BC009C010020A0010020A4010020A801002011
:1017CC00AC01002080B485B000AF154B9B69144A66
:1017DC0043F001039361124B9B6903F00103BB605F
:1017EC00BB680F4BDB690E4A43F08053D3610C4B43
:1017FC00DB6903F080537B607B680A4B5B68FB60A2
:10180C00FB6823F0E063FB60FB6843F08063FB60E4
:10181C00044AFB68536000BF1437BD4680BC704758
:10182C00001002400000014080B584B000AF786029
:10183C007B681B68B3F1804F13D10C4BDB690B4AEF
:10184C0043F00103D361094BDB6903F00103FB6037
:10185C00FB68002200211C2000F0A1F91C2000F0E4
:10186C00BAF900BF1037BD4680BD00BF0010024062
:10187C0080B400AFFEE780B400AFFEE780B400AFE9
:10188C00FEE780B400AFFEE780B400AFFEE780B4A3
:10189C0000AF00BFBD4680BC704780B400AF00BF36
:1018AC00BD4680BC704780B400AF00BFBD4680BC55
:1018BC00704780B500AF00F07FF800BF80BD00001E
:1018CC0080B500AF024800F0C3FF00BF80BD00BF71
:1018DC00B001002080B400AF00BFBD4680BC704793
:1018EC00FFF7F8FF0B480C490C4A002302E0D458D0
:1018FC00C4500433C4188C42F9D3094A094C002350
:10190C0001E013600432A242FBD301F0EDFAFFF7C1
:10191C0071F97047000000205C000020902F000837
:10192C005C000020FC010020FEE7000080B500AF49
:10193C00084B1B68074A43F010031360032000F0A8
:10194C0023F90F2000F008F8FFF73CFF002318469E
:10195C0080BD00BF0020024080B582B000AF78602F
:10196C00124B1A68124B1B7819464FF47A73B3FB5F
:10197C00F1F3B2FBF3F3184600F03BF90346002BEE
:10198C0001D001230EE07B680F2B0AD80022796866
:10199C004FF0FF3000F003F9064A7B681360002318
:1019AC0000E0012318460837BD4680BD50000020DA
:1019BC00580000205400002080B400AF054B1B7869
:1019CC001A46054B1B681344034A136000BFBD46FF
:1019DC0080BC704758000020F801002080B400AF94
:1019EC00024B1B681846BD4680BC7047F8010020AE
:1019FC0080B485B000AF78607B6803F00703FB60B0
:101A0C000C4BDB68BB60BA684FF6FF031340BB603E
:101A1C00FB681A02BB68134343F0BF6343F4003303
:101A2C00BB60044ABB68D36000BF1437BD4680BCA2
:101A3C00704700BF00ED00E080B400AF044BDB68E2
:101A4C001B0A03F007031846BD4680BC704700BF55
:101A5C0000ED00E080B483B000AF0346FB7197F952
:101A6C000730002B0BDBFB7903F01F02064997F9BB
:101A7C0007305B09012000FA02F241F8232000BF75
:101A8C000C37BD4680BC704700E100E080B483B0E9
:101A9C0000AF03463960FB7197F90730002B0ADB66
:101AAC003B68DAB20C4997F907301201D2B20B44F9
:101ABC0083F800230AE03B68DAB20849FB7903F0AB
:101ACC000F03043B1201D2B20B441A7600BF0C3741
:101ADC00BD4680BC704700BF00E100E000ED00E0B7
:101AEC0080B489B000AFF860B9607A60FB6803F02D
:101AFC000703FB61FB69C3F10703042B28BF042315
:101B0C00BB61FB690433062B02D9FB69033B00E084
:101B1C0000237B614FF0FF32BB6902FA03F3DA4317
:101B2C00BB681A407B699A404FF0FF317B6901FA20
:101B3C0003F3D9437B680B40134318462437BD4647
:101B4C0080BC704780B582B000AF78607B68013B89
:101B5C00B3F1807F01D301230FE00A4A7B68013B7C
:101B6C0053600F214FF0FF30FFF790FF054B002221
:101B7C009A60044B07221A60002318460837BD46AA
:101B8C0080BD00BF10E000E080B582B000AF78608F
:101B9C007868FFF72DFF00BF0837BD4680BD80B5C4
:101BAC0086B000AF0346B9607A60FB7300237B619B
:101BBC00FFF742FF78617A68B9687869FFF790FFA0
:101BCC00024697F90F3011461846FFF75FFF00BF2A
:101BDC001837BD4680BD80B582B000AF0346FB719F
:101BEC0097F907301846FFF735FF00BF0837BD4699
:101BFC0080BD80B582B000AF78607868FFF7A2FF37
:101C0C00034618460837BD4680BD000080B48BB033
:101C1C0000AF7860396000237B6200233B6248E1AF
:101C2C0001227B6A02FA03F3FB613B681B68FA69C9
:101C3C001340BB61BA69FB699A4240F037813B683B
:101C4C005B68A34A93425ED0A14A934275D8A14ADD
:101C5C00934258D09F4A93426FD89F4A934252D096
:101C6C009D4A934269D89D4A93424CD09B4A9342D9
:101C7C0063D89B4A934246D0994A93425DD8122B23
:101C8C002AD8122B59D801A252F823F0131D0008A0
:101C9C00ED1C0008FF1C0008411D0008471D000832
:101CAC00471D0008471D0008471D0008471D000878
:101CBC00471D0008471D0008471D0008471D000868
:101CCC00471D0008471D0008471D0008471D000858
:101CDC00F51C0008091D0008824A934213D02CE021
:101CEC003B68DB683B6229E03B68DB6804333B62A2
:101CFC0024E03B68DB6808333B621FE03B68DB6831
:101D0C000C333B621AE03B689B68002B02D1042326
:101D1C003B6213E03B689B68012B05D108233B62B7
:101D2C007B68FA691A6109E008233B627B68FA69EF
:101D3C005A6103E000233B6200E000BFBB69FF2B4C
:101D4C0001D87B6801E07B6804337B61BB69FF2BA6
:101D5C0002D87B6A9B0002E07B6A083B9B003B61DC
:101D6C007B691A680F213B6901FA03F3DB431A40C4
:101D7C00396A3B6901FA03F31A437B691A603B68C1
:101D8C005B6803F08053002B00F09080564B9B69EE
:101D9C00554A43F001039361534B9B6903F00103D4
:101DAC00BB60BB68514A7B6A9B08023352F82330F4
:101DBC00FB607B6A03F003039B000F2202FA03F320
:101DCC00DB43FA681340FB607B68494A93420DD0B1
:101DDC007B68484A934207D07B68474A934201D1BB
:101DEC00022304E0032302E0012300E000237A6ACB
:101DFC0002F0030292009340FA681343FB603B49E4
:101E0C007B6A9B080233FA6841F823203B685B68C5
:101E1C0003F48013002B06D0384B9A683749BB6902
:101E2C0013438B6006E0354B9A68BB69DB4333493F
:101E3C0013408B603B685B6803F40013002B06D0E7
:101E4C002E4BDA682D49BB691343CB6006E02B4B54
:101E5C00DA68BB69DB4329491340CB603B685B689C
:101E6C0003F40033002B06D0244B5A682349BB697A
:101E7C0013434B6006E0214B5A68BB69DB431F4997
:101E8C0013404B603B685B6803F48033002B06D037
:101E9C001A4B1A681949BB6913430B6006E0174BC0
:101EAC001A68BB69DB43154913400B607B6A01332D
:101EBC007B623B681A687B6A22FA03F3002B7FF47F
:101ECC00AFAE00BF00BF2C37BD4680BC704700BF13
:101EDC000000321000003110000022100000211010
:101EEC000000121000001110001002400000014010
:101EFC0000080140000C01400010014000040140AA
:101F0C0080B485B000AF78600B467B807B689A68A4
:101F1C007B881340002B02D00123FB7301E00023CC
:101F2C00FB73FB7B18461437BD4680BC704780B4EE
:101F3C0083B000AF78600B467B8013467B707B7858
:101F4C00002B03D07A887B681A6103E07B881A0423
:101F5C007B681A6100BF0C37BD4680BC704700001F
:101F6C0080B586B000AF78607B68002B01D101236F
:101F7C006CE27B681B6803F00103002B00F0878088
:101F8C00924B5B6803F00C03042B0CD08F4B5B68FB
:101F9C0003F00C03082B12D18C4B5B6803F48033D9
:101FAC00B3F5803F0BD1894B1B6803F40033002B36
:101FBC006CD07B685B68002B68D1012346E27B68A0
:101FCC005B68B3F5803F06D1804B1B687F4A43F4B6
:101FDC00803313602EE07B685B68002B0CD17B4B4D
:101FEC001B687A4A23F480331360784B1B68774A5A
:101FFC0023F4802313601DE07B685B68B3F5A02F8E
:10200C000CD1724B1B68714A43F4802313606F4BE5
:10201C001B686E4A43F4803313600BE06B4B1B68F8
:10202C006A4A23F480331360684B1B68674A23F4B5
:10203C00802313607B685B68002B13D0FFF7CEFC0A
:10204C00386108E0FFF7CAFC02463B69D31A642BDF
:10205C0001D90323FAE15D4B1B6803F40033002B19
:10206C00F0D014E0FFF7BAFC386108E0FFF7B6FCDB
:10207C0002463B69D31A642B01D90323E6E1534B87
:10208C001B6803F40033002BF0D100E000BF7B6829
:10209C001B6803F00203002B63D04C4B5B6803F00E
:1020AC000C03002B0BD0494B5B6803F00C03082B83
:1020BC001CD1464B5B6803F48033002B16D1434B89
:1020CC001B6803F00203002B05D07B681B69012BF6
:1020DC0001D00123BAE13D4B1B6823F0F8027B6869
:1020EC005B69DB00394913430B603AE07B681B6981
:1020FC00002B20D0364B01221A60FFF76FFC3861A1
:10210C0008E0FFF76BFC02463B69D31A022B01D99E
:10211C0003239BE12D4B1B6803F00203002BF0D033
:10212C002A4B1B6823F0F8027B685B69DB002749AC
:10213C0013430B6015E0264B00221A60FFF74EFC90
:10214C00386108E0FFF74AFC02463B69D31A022BC0
:10215C0001D903237AE11D4B1B6803F00203002B0A
:10216C00F0D17B681B6803F00803002B3AD07B6826
:10217C009B69002B19D0174B01221A60FFF72EFC1C
:10218C00386108E0FFF72AFC02463B69D31A022BA0
:10219C0001D903235AE10D4B5B6A03F00203002BB8
:1021AC00F0D0012000F09AFA1CE00A4B00221A60D1
:1021BC00FFF714FC38610FE0FFF710FC02463B6997
:1021CC00D31A022B08D9032340E100BF00100240B0
:1021DC0000004242800442429E4B5B6A03F00203C1
:1021EC00002BE9D17B681B6803F00403002B00F083
:1021FC00A6800023FB75974BDB6903F08053002B03
:10220C000DD1944BDB69934A43F08053D361914BCE
:10221C00DB6903F08053BB60BB680123FB758E4BFD
:10222C001B6803F48073002B18D18B4B1B688A4AF4
:10223C0043F480731360FFF7D1FB386108E0FFF7BC
:10224C00CDFB02463B69D31A642B01D90323FDE075
:10225C00814B1B6803F48073002BF0D07B68DB6828
:10226C00012B06D17B4B1B6A7A4A43F001031362A4
:10227C002DE07B68DB68002B0CD1764B1B6A754A12
:10228C0023F001031362734B1B6A724A23F004039D
:10229C0013621CE07B68DB68052B0CD16D4B1B6A51
:1022AC006C4A43F0040313626A4B1B6A694A43F09D
:1022BC00010313620BE0674B1B6A664A23F00103B0
:1022CC001362644B1B6A634A23F0040313627B683A
:1022DC00DB68002B15D0FFF781FB38610AE0FFF7B4
:1022EC007DFB02463B69D31A41F28832934201D9F5
:1022FC000323ABE0574B1B6A03F00203002BEED019
:10230C0014E0FFF76BFB38610AE0FFF767FB02464E
:10231C003B69D31A41F28832934201D9032395E0E9
:10232C004C4B1B6A03F00203002BEED1FB7D012BFF
:10233C0005D1484BDB69474A23F08053D3617B6856
:10234C00DB69002B00F08180424B5B6803F00C03CF
:10235C00082B61D07B68DB69022B46D13F4B0022F6
:10236C001A60FFF73BFB386108E0FFF737FB0246CA
:10237C003B69D31A022B01D9032367E0354B1B6849
:10238C0003F00073002BF0D17B681B6AB3F5803F20
:10239C0008D1304B5B6823F400327B689B682D4975
:1023AC0013434B602B4B5B6823F474127B68196AE4
:1023BC007B685B6A0B43274913434B60274B012215
:1023CC001A60FFF70BFB386108E0FFF707FB0246CA
:1023DC003B69D31A022B01D9032337E01D4B1B6831
:1023EC0003F00073002BF0D02FE01C4B00221A607E
:1023FC00FFF7F4FA386108E0FFF7F0FA02463B69A0
:10240C00D31A022B01D9032320E0124B1B6803F0D3
:10241C000073002BF0D118E07B68DB69012B01D134
:10242C00012313E00B4B5B68FB60FB6803F4803209
:10243C007B681B6A9A4206D1FB6803F470127B68B6
:10244C005B6A9A4201D0012300E00023184618373A
:10245C00BD4680BD0010024000700040600042424A
:10246C0080B584B000AF786039607B68002B01D1F7
:10247C000123D0E06A4B1B6803F007033A689A42C9
:10248C0010D9674B1B6823F0070265493B6813435F
:10249C000B60634B1B6803F007033A689A4201D048
:1024AC000123B8E07B681B6803F00203002B20D0EB
:1024BC007B681B6803F00403002B05D0594B5B6849
:1024CC00584A43F4E06353607B681B6803F00803CD
:1024DC00002B05D0534B5B68524A43F46053536056
:1024EC00504B5B6823F0F0027B689B684D491343AB
:1024FC004B607B681B6803F00103002B40D07B68AA
:10250C005B68012B07D1474B1B6803F40033002B8E
:10251C0015D101237FE07B685B68022B07D1414B0F
:10252C001B6803F00073002B09D1012373E03D4BB2
:10253C001B6803F00203002B01D101236BE0394B24
:10254C005B6823F003027B685B68364913434B607E
:10255C00FFF744FAF8600AE0FFF740FA0246FB681E
:10256C00D31A41F28832934201D9032353E02D4B05
:10257C005B6803F00C027B685B689B009A42EBD1B2
:10258C00274B1B6803F007033A689A4210D2244B7E
:10259C001B6823F0070222493B6813430B60204B56
:1025AC001B6803F007033A689A4201D0012332E01A
:1025BC007B681B6803F00403002B08D0194B5B6885
:1025CC0023F4E0627B68DB68164913434B607B683D
:1025DC001B6803F00803002B09D0124B5B6823F433
:1025EC0060527B681B69DB000E4913434B6000F0A3
:1025FC0021F802460B4B5B681B0903F00F030A49D9
:10260C00CB5C22FA03F3094A1360094B1B6818468A
:10261C00FFF7A2F9002318461037BD4680BD00BF56
:10262C000020024000100240642F000850000020DF
:10263C005400002080B487B000AF0023FB6000235F
:10264C00BB6000237B6100237B6000233B611E4B3E
:10265C005B68FB60FB6803F00C03042B02D0082BB7
:10266C0003D027E0194B3B6127E0FB689B0C03F080
:10267C000F03174AD35C7B60FB6803F48033002B99
:10268C0010D0114B5B685B0C03F00103114AD35C57
:10269C00BB607B680D4A02FB03F2BB68B2FBF3F331
:1026AC007B6104E07B680C4A02FB03F37B617B6972
:1026BC003B6102E0054B3B6100BF3B6918461C3790
:1026CC00BD4680BC704700BF0010024000127A006B
:1026DC00742F0008842F000800093D0080B485B0D9
:1026EC0000AF78600A4B1B680A4AA2FB03235B0A03
:1026FC007A6802FB03F3FB6000BFFB685A1EFA60AA
:10270C00002BF9D100BF00BF1437BD4680BC704709
:10271C0050000020D34D621080B582B000AF7860BD
:10272C007B68002B01D1012341E07B6893F83D309D
:10273C00DBB2002B06D17B68002283F83C20786842
:10274C00FFF772F87B68022283F83D207B681A68D9
:10275C007B6804331946104600F06EFA7B68012240
:10276C0083F846207B68012283F83E207B68012297
:10277C0083F83F207B68012283F840207B6801228C
:10278C0083F841207B68012283F842207B68012278
:10279C0083F843207B68012283F844207B68012264
:1027AC0083F845207B68012283F83D2000231846DE
:1027BC000837BD4680BD000080B485B000AF78609E
:1027CC007B6893F83D30DBB2012B01D0012335E05F
:1027DC007B68022283F83D207B681B68DA687B6883
:1027EC001B6842F00102DA607B681B68164A934250
:1027FC0009D07B681B68B3F1804F04D07B681B68E1
:10280C00124A934211D17B681B689B6803F0070343
:10281C00FB60FB68062B10D07B681B681A687B6812
:10282C001B6842F001021A6007E07B681B681A689B
:10283C007B681B6842F001021A60002318461437AB
:10284C00BD4680BC704700BF002C01400004004016
:10285C0080B582B000AF78607B681B681B6903F0A1
:10286C000203022B22D17B681B68DB6803F0020396
:10287C00022B1BD17B681B686FF002021A617B680C
:10288C0001221A777B681B689B6903F00303002BFA
:10289C0003D0786800F0B4F905E0786800F0A7F987
:1028AC00786800F0B6F97B6800221A777B681B68A1
:1028BC001B6903F00403042B22D17B681B68DB68C3
:1028CC0003F00403042B1BD17B681B686FF004021C
:1028DC001A617B6802221A777B681B689B6903F478
:1028EC004073002B03D0786800F08AF905E0786813
:1028FC0000F07DF9786800F08CF97B6800221A777B
:10290C007B681B681B6903F00803082B22D17B68CA
:10291C001B68DB6803F00803082B1BD17B681B6862
:10292C006FF008021A617B6804221A777B681B68B7
:10293C00DB6903F00303002B03D0786800F060F927
:10294C0005E0786800F053F9786800F062F97B686C
:10295C0000221A777B681B681B6903F01003102B8D
:10296C0022D17B681B68DB6803F01003102B1BD192
:10297C007B681B686FF010021A617B6808221A775B
:10298C007B681B68DB6903F44073002B03D0786809
:10299C0000F036F905E0786800F029F9786800F065
:1029AC0038F97B6800221A777B681B681B6903F077
:1029BC000103012B0ED17B681B68DB6803F001035C
:1029CC00012B07D17B681B686FF001021A617868D4
:1029DC00FEF752FA7B681B681B6903F08003802B9F
:1029EC000ED17B681B68DB6803F08003802B07D15A
:1029FC007B681B686FF080021A61786800F06BFAD4
:102A0C007B681B681B6903F04003402B0ED17B686D
:102A1C001B68DB6803F04003402B07D17B681B6805
:102A2C006FF040021A61786800F0FCF87B681B6854
:102A3C001B6903F02003202B0ED17B681B68DB681D
:102A4C0003F02003202B07D17B681B686FF020025A
:102A5C001A61786800F036FA00BF0837BD4680BDB1
:102A6C0080B584B000AF786039600023FB737B685D
:102A7C0093F83C30012B01D10223B4E07B68012296
:102A8C0083F83C207B68022283F83D207B681B681E
:102A9C009B68BB60BB6823F07703BB60BB6823F407
:102AAC007F43BB607B681B68BA689A603B681B6895
:102ABC00B3F5005F3ED0B3F5005F00F28780B3F54D
:102ACC00805F00F08680B3F5805F7FD8702B1AD0C2
:102ADC00702B7BD8602B50D0602B77D8502B3CD0F0
:102AEC00502B73D8402B58D0402B6FD8302B64D040
:102AFC00302B6BD8202B60D0202B67D8002B5CD0D0
:102B0C00102B5AD062E07B6818683B6899683B6868
:102B1C005A683B68DB6800F05EF97B681B689B6851
:102B2C00BB60BB6843F07703BB607B681B68BA680B
:102B3C009A604FE07B6818683B6899683B685A68F4
:102B4C003B68DB6800F047F97B681B689A687B6818
:102B5C001B6842F480429A603CE07B6818683B68D2
:102B6C0059683B68DB681A4600F0BEF87B681B6846
:102B7C005021184600F015F92CE07B6818683B686A
:102B8C0059683B68DB681A4600F0DCF87B681B6808
:102B9C006021184600F005F91CE07B6818683B685A
:102BAC0059683B68DB681A4600F09EF87B681B6826
:102BBC004021184600F0F5F80CE07B681A683B6879
:102BCC001B681946104600F0ECF803E00123FB7378
:102BDC0000E000BF7B68012283F83D207B68002267
:102BEC0083F83C20FB7B18461037BD4680BD80B473
:102BFC0083B000AF786000BF0C37BD4680BC704717
:102C0C0080B483B000AF786000BF0C37BD4680BC89
:102C1C00704780B483B000AF786000BF0C37BD46FE
:102C2C0080BC704780B483B000AF786000BF0C37B5
:102C3C00BD4680BC7047000080B485B000AF7860A2
:102C4C0039607B681B68FB607B68254A934207D020
:102C5C007B68B3F1804F03D07B68224A934208D142
:102C6C00FB6823F07003FB603B685B68FA681343F6
:102C7C00FB607B681A4A934207D07B68B3F1804FA4
:102C8C0003D07B68174A934208D1FB6823F4407346
:102C9C00FB603B68DB68FA681343FB60FB6823F05E
:102CAC0080023B685B691343FB607B68FA681A60BF
:102CBC003B689A687B68DA623B681A687B689A6240
:102CCC007B68074A934203D13B681A697B681A6395
:102CDC007B6801225A6100BF1437BD4680BC704727
:102CEC00002C01400004004080B487B000AFF860B5
:102CFC00B9607A60FB681B6A7B61FB681B6A23F016
:102D0C000102FB681A62FB689B693B613B6923F01B
:102D1C00F0033B617B681B013A6913433B617B69A0
:102D2C0023F00A037B617A69BB6813437B61FB6800
:102D3C003A699A61FB687A691A6200BF1C37BD4612
:102D4C0080BC704780B487B000AFF860B9607A601F
:102D5C00FB681B6A7B61FB681B6A23F01002FB6833
:102D6C001A62FB689B693B613B6923F470433B61CE
:102D7C007B681B033A6913433B617B6923F0A00317
:102D8C007B61BB681B017A6913437B61FB683A6901
:102D9C009A61FB687A691A6200BF1C37BD4680BC19
:102DAC00704780B485B000AF786039607B689B68F1
:102DBC00FB60FB6823F07003FB603A68FB6813430D
:102DCC0043F00703FB607B68FA689A6000BF143716
:102DDC00BD4680BC704780B487B000AFF860B96066
:102DEC007A603B60FB689B687B617B6923F47F4363
:102DFC007B613B681A027B681A43BB6813437A6990
:102E0C0013437B61FB687A699A6000BF1C37BD462F
:102E1C0080BC704780B485B000AF786039607B6847
:102E2C0093F83C30012B01D1022341E07B68012255
:102E3C0083F83C207B68022283F83D207B681B686A
:102E4C005B68FB607B681B689B68BB60FB6823F05E
:102E5C007003FB603B681B68FA681343FB607B687C
:102E6C001B68FA685A607B681B68144A934209D045
:102E7C007B681B68B3F1804F04D07B681B68104AD9
:102E8C0093420CD1BB6823F08003BB603B685B684A
:102E9C00BA681343BB607B681B68BA689A607B682E
:102EAC00012283F83D207B68002283F83C2000231C
:102EBC0018461437BD4680BC704700BF002C01403B
:102ECC000004004080B483B000AF786000BF0C37C2
:102EDC00BD4680BC704780B483B000AF786000BF43
:102EEC000C37BD4680BC704770B500260C4D0D4CA0
:102EFC00641BA410A64209D100F022F800260A4D4A
:102F0C000A4C641BA410A64205D170BD55F8043BB5
:102F1C0098470136EEE755F8043B98470136F2E73F
:102F2C00882F0008882F0008882F00088C2F000895
:102F3C0003460244934200D1704703F8011BF9E7A2
:102F4C00F8B500BFF8BC08BC9E467047F8B500BF8A
:082F5C00F8BC08BC9E4670475A
:102F64000000000000000000010203040607080935
:102F740002030405060708090A0B0C0D0E0F1010B6
:042F84000102000046
:042F8800310100080B
:042F8C000D0100082B
:102F900000100020004000000100000001000000BF
:102FA000010000000100000001000000010000001D
:102FB000010000000100000001000000010000000D
:102FC0000100000001000000C8000000C80000006F
:102FD000C80000000500000002000000030000001F
:0C2FE0000024F4001000000001000000BC
:04000005080018EDEA
:00000001FF
